{
  "_format": "hh-sol-artifact-1",
  "contractName": "SerieProjectNFT",
  "sourceName": "contracts/SerieProjectNFT.sol",
  "abi": [
    {
      "inputs": [
        {
          "internalType": "address",
          "name": "_serieCoinAddress",
          "type": "address"
        },
        {
          "internalType": "address",
          "name": "_stakingAddress",
          "type": "address"
        }
      ],
      "stateMutability": "nonpayable",
      "type": "constructor"
    },
    {
      "inputs": [
        {
          "internalType": "address",
          "name": "sender",
          "type": "address"
        },
        {
          "internalType": "uint256",
          "name": "tokenId",
          "type": "uint256"
        },
        {
          "internalType": "address",
          "name": "owner",
          "type": "address"
        }
      ],
      "name": "ERC721IncorrectOwner",
      "type": "error"
    },
    {
      "inputs": [
        {
          "internalType": "address",
          "name": "operator",
          "type": "address"
        },
        {
          "internalType": "uint256",
          "name": "tokenId",
          "type": "uint256"
        }
      ],
      "name": "ERC721InsufficientApproval",
      "type": "error"
    },
    {
      "inputs": [
        {
          "internalType": "address",
          "name": "approver",
          "type": "address"
        }
      ],
      "name": "ERC721InvalidApprover",
      "type": "error"
    },
    {
      "inputs": [
        {
          "internalType": "address",
          "name": "operator",
          "type": "address"
        }
      ],
      "name": "ERC721InvalidOperator",
      "type": "error"
    },
    {
      "inputs": [
        {
          "internalType": "address",
          "name": "owner",
          "type": "address"
        }
      ],
      "name": "ERC721InvalidOwner",
      "type": "error"
    },
    {
      "inputs": [
        {
          "internalType": "address",
          "name": "receiver",
          "type": "address"
        }
      ],
      "name": "ERC721InvalidReceiver",
      "type": "error"
    },
    {
      "inputs": [
        {
          "internalType": "address",
          "name": "sender",
          "type": "address"
        }
      ],
      "name": "ERC721InvalidSender",
      "type": "error"
    },
    {
      "inputs": [
        {
          "internalType": "uint256",
          "name": "tokenId",
          "type": "uint256"
        }
      ],
      "name": "ERC721NonexistentToken",
      "type": "error"
    },
    {
      "inputs": [
        {
          "internalType": "address",
          "name": "owner",
          "type": "address"
        }
      ],
      "name": "OwnableInvalidOwner",
      "type": "error"
    },
    {
      "inputs": [
        {
          "internalType": "address",
          "name": "account",
          "type": "address"
        }
      ],
      "name": "OwnableUnauthorizedAccount",
      "type": "error"
    },
    {
      "inputs": [],
      "name": "ProjectDoesNotExist",
      "type": "error"
    },
    {
      "anonymous": false,
      "inputs": [
        {
          "indexed": true,
          "internalType": "address",
          "name": "owner",
          "type": "address"
        },
        {
          "indexed": true,
          "internalType": "address",
          "name": "approved",
          "type": "address"
        },
        {
          "indexed": true,
          "internalType": "uint256",
          "name": "tokenId",
          "type": "uint256"
        }
      ],
      "name": "Approval",
      "type": "event"
    },
    {
      "anonymous": false,
      "inputs": [
        {
          "indexed": true,
          "internalType": "address",
          "name": "owner",
          "type": "address"
        },
        {
          "indexed": true,
          "internalType": "address",
          "name": "operator",
          "type": "address"
        },
        {
          "indexed": false,
          "internalType": "bool",
          "name": "approved",
          "type": "bool"
        }
      ],
      "name": "ApprovalForAll",
      "type": "event"
    },
    {
      "anonymous": false,
      "inputs": [
        {
          "indexed": true,
          "internalType": "uint256",
          "name": "projectId",
          "type": "uint256"
        },
        {
          "indexed": false,
          "internalType": "string",
          "name": "copyrightURI",
          "type": "string"
        }
      ],
      "name": "CopyrightRegistered",
      "type": "event"
    },
    {
      "anonymous": false,
      "inputs": [
        {
          "indexed": true,
          "internalType": "address",
          "name": "previousOwner",
          "type": "address"
        },
        {
          "indexed": true,
          "internalType": "address",
          "name": "newOwner",
          "type": "address"
        }
      ],
      "name": "OwnershipTransferred",
      "type": "event"
    },
    {
      "anonymous": false,
      "inputs": [
        {
          "indexed": true,
          "internalType": "uint256",
          "name": "projectId",
          "type": "uint256"
        },
        {
          "indexed": false,
          "internalType": "string",
          "name": "title",
          "type": "string"
        },
        {
          "indexed": true,
          "internalType": "address",
          "name": "producer",
          "type": "address"
        },
        {
          "indexed": false,
          "internalType": "string",
          "name": "tokenURI",
          "type": "string"
        }
      ],
      "name": "ProjectCreated",
      "type": "event"
    },
    {
      "anonymous": false,
      "inputs": [
        {
          "indexed": true,
          "internalType": "uint256",
          "name": "projectId",
          "type": "uint256"
        },
        {
          "indexed": true,
          "internalType": "address",
          "name": "investor",
          "type": "address"
        },
        {
          "indexed": false,
          "internalType": "uint96",
          "name": "amount",
          "type": "uint96"
        },
        {
          "indexed": false,
          "internalType": "uint16",
          "name": "shares",
          "type": "uint16"
        }
      ],
      "name": "ProjectFunded",
      "type": "event"
    },
    {
      "anonymous": false,
      "inputs": [
        {
          "indexed": true,
          "internalType": "uint256",
          "name": "projectId",
          "type": "uint256"
        },
        {
          "indexed": false,
          "internalType": "enum SerieProjectNFT.ProjectStatus",
          "name": "newStatus",
          "type": "uint8"
        }
      ],
      "name": "ProjectStatusChanged",
      "type": "event"
    },
    {
      "anonymous": false,
      "inputs": [
        {
          "indexed": true,
          "internalType": "uint256",
          "name": "projectId",
          "type": "uint256"
        },
        {
          "indexed": true,
          "internalType": "address",
          "name": "investor",
          "type": "address"
        },
        {
          "indexed": false,
          "internalType": "uint96",
          "name": "amount",
          "type": "uint96"
        }
      ],
      "name": "RefundClaimed",
      "type": "event"
    },
    {
      "anonymous": false,
      "inputs": [
        {
          "indexed": true,
          "internalType": "uint256",
          "name": "projectId",
          "type": "uint256"
        },
        {
          "indexed": true,
          "internalType": "address",
          "name": "from",
          "type": "address"
        },
        {
          "indexed": true,
          "internalType": "address",
          "name": "to",
          "type": "address"
        },
        {
          "indexed": false,
          "internalType": "uint16",
          "name": "shares",
          "type": "uint16"
        }
      ],
      "name": "SharesTransferred",
      "type": "event"
    },
    {
      "anonymous": false,
      "inputs": [
        {
          "indexed": true,
          "internalType": "address",
          "name": "from",
          "type": "address"
        },
        {
          "indexed": true,
          "internalType": "address",
          "name": "to",
          "type": "address"
        },
        {
          "indexed": true,
          "internalType": "uint256",
          "name": "tokenId",
          "type": "uint256"
        }
      ],
      "name": "Transfer",
      "type": "event"
    },
    {
      "inputs": [
        {
          "internalType": "address",
          "name": "to",
          "type": "address"
        },
        {
          "internalType": "uint256",
          "name": "tokenId",
          "type": "uint256"
        }
      ],
      "name": "approve",
      "outputs": [],
      "stateMutability": "nonpayable",
      "type": "function"
    },
    {
      "inputs": [
        {
          "internalType": "address",
          "name": "owner",
          "type": "address"
        }
      ],
      "name": "balanceOf",
      "outputs": [
        {
          "internalType": "uint256",
          "name": "",
          "type": "uint256"
        }
      ],
      "stateMutability": "view",
      "type": "function"
    },
    {
      "inputs": [
        {
          "internalType": "uint256",
          "name": "_projectId",
          "type": "uint256"
        }
      ],
      "name": "claimRefund",
      "outputs": [],
      "stateMutability": "nonpayable",
      "type": "function"
    },
    {
      "inputs": [
        {
          "internalType": "uint256",
          "name": "_projectId",
          "type": "uint256"
        }
      ],
      "name": "completeProject",
      "outputs": [],
      "stateMutability": "nonpayable",
      "type": "function"
    },
    {
      "inputs": [
        {
          "internalType": "string",
          "name": "_title",
          "type": "string"
        },
        {
          "internalType": "string",
          "name": "_description",
          "type": "string"
        },
        {
          "internalType": "uint96",
          "name": "_fundingGoal",
          "type": "uint96"
        },
        {
          "internalType": "uint32",
          "name": "_duration",
          "type": "uint32"
        },
        {
          "internalType": "string",
          "name": "_copyrightURI",
          "type": "string"
        },
        {
          "internalType": "string",
          "name": "_tokenURI",
          "type": "string"
        }
      ],
      "name": "createProject",
      "outputs": [],
      "stateMutability": "nonpayable",
      "type": "function"
    },
    {
      "inputs": [
        {
          "internalType": "uint256",
          "name": "_projectId",
          "type": "uint256"
        }
      ],
      "name": "forceCompleteProject",
      "outputs": [],
      "stateMutability": "nonpayable",
      "type": "function"
    },
    {
      "inputs": [
        {
          "internalType": "uint256",
          "name": "tokenId",
          "type": "uint256"
        }
      ],
      "name": "getApproved",
      "outputs": [
        {
          "internalType": "address",
          "name": "",
          "type": "address"
        }
      ],
      "stateMutability": "view",
      "type": "function"
    },
    {
      "inputs": [
        {
          "internalType": "uint256",
          "name": "_projectId",
          "type": "uint256"
        }
      ],
      "name": "getCopyrightURI",
      "outputs": [
        {
          "internalType": "string",
          "name": "",
          "type": "string"
        }
      ],
      "stateMutability": "view",
      "type": "function"
    },
    {
      "inputs": [
        {
          "internalType": "uint256",
          "name": "_projectId",
          "type": "uint256"
        }
      ],
      "name": "getProjectStatus",
      "outputs": [
        {
          "internalType": "enum SerieProjectNFT.ProjectStatus",
          "name": "",
          "type": "uint8"
        }
      ],
      "stateMutability": "view",
      "type": "function"
    },
    {
      "inputs": [
        {
          "internalType": "uint256",
          "name": "_projectId",
          "type": "uint256"
        },
        {
          "internalType": "address",
          "name": "_investor",
          "type": "address"
        }
      ],
      "name": "getSharePercentage",
      "outputs": [
        {
          "internalType": "uint256",
          "name": "",
          "type": "uint256"
        }
      ],
      "stateMutability": "view",
      "type": "function"
    },
    {
      "inputs": [
        {
          "internalType": "uint256",
          "name": "_projectId",
          "type": "uint256"
        },
        {
          "internalType": "uint96",
          "name": "_amount",
          "type": "uint96"
        }
      ],
      "name": "investInProject",
      "outputs": [],
      "stateMutability": "nonpayable",
      "type": "function"
    },
    {
      "inputs": [
        {
          "internalType": "address",
          "name": "owner",
          "type": "address"
        },
        {
          "internalType": "address",
          "name": "operator",
          "type": "address"
        }
      ],
      "name": "isApprovedForAll",
      "outputs": [
        {
          "internalType": "bool",
          "name": "",
          "type": "bool"
        }
      ],
      "stateMutability": "view",
      "type": "function"
    },
    {
      "inputs": [],
      "name": "name",
      "outputs": [
        {
          "internalType": "string",
          "name": "",
          "type": "string"
        }
      ],
      "stateMutability": "view",
      "type": "function"
    },
    {
      "inputs": [],
      "name": "owner",
      "outputs": [
        {
          "internalType": "address",
          "name": "",
          "type": "address"
        }
      ],
      "stateMutability": "view",
      "type": "function"
    },
    {
      "inputs": [
        {
          "internalType": "uint256",
          "name": "tokenId",
          "type": "uint256"
        }
      ],
      "name": "ownerOf",
      "outputs": [
        {
          "internalType": "address",
          "name": "",
          "type": "address"
        }
      ],
      "stateMutability": "view",
      "type": "function"
    },
    {
      "inputs": [],
      "name": "projectCount",
      "outputs": [
        {
          "internalType": "uint32",
          "name": "",
          "type": "uint32"
        }
      ],
      "stateMutability": "view",
      "type": "function"
    },
    {
      "inputs": [
        {
          "internalType": "uint256",
          "name": "",
          "type": "uint256"
        },
        {
          "internalType": "address",
          "name": "",
          "type": "address"
        }
      ],
      "name": "projectShares",
      "outputs": [
        {
          "internalType": "uint16",
          "name": "",
          "type": "uint16"
        }
      ],
      "stateMutability": "view",
      "type": "function"
    },
    {
      "inputs": [
        {
          "internalType": "uint256",
          "name": "",
          "type": "uint256"
        }
      ],
      "name": "projects",
      "outputs": [
        {
          "internalType": "uint96",
          "name": "fundingGoal",
          "type": "uint96"
        },
        {
          "internalType": "uint96",
          "name": "currentFunding",
          "type": "uint96"
        },
        {
          "internalType": "uint32",
          "name": "duration",
          "type": "uint32"
        },
        {
          "internalType": "uint32",
          "name": "startTime",
          "type": "uint32"
        },
        {
          "internalType": "uint16",
          "name": "totalShares",
          "type": "uint16"
        },
        {
          "internalType": "bool",
          "name": "refundClaimed",
          "type": "bool"
        },
        {
          "internalType": "address",
          "name": "producer",
          "type": "address"
        },
        {
          "internalType": "enum SerieProjectNFT.ProjectStatus",
          "name": "status",
          "type": "uint8"
        },
        {
          "internalType": "string",
          "name": "title",
          "type": "string"
        },
        {
          "internalType": "string",
          "name": "description",
          "type": "string"
        },
        {
          "internalType": "string",
          "name": "copyrightURI",
          "type": "string"
        },
        {
          "internalType": "string",
          "name": "tokenURI",
          "type": "string"
        }
      ],
      "stateMutability": "view",
      "type": "function"
    },
    {
      "inputs": [],
      "name": "renounceOwnership",
      "outputs": [],
      "stateMutability": "nonpayable",
      "type": "function"
    },
    {
      "inputs": [
        {
          "internalType": "address",
          "name": "from",
          "type": "address"
        },
        {
          "internalType": "address",
          "name": "to",
          "type": "address"
        },
        {
          "internalType": "uint256",
          "name": "tokenId",
          "type": "uint256"
        }
      ],
      "name": "safeTransferFrom",
      "outputs": [],
      "stateMutability": "nonpayable",
      "type": "function"
    },
    {
      "inputs": [
        {
          "internalType": "address",
          "name": "from",
          "type": "address"
        },
        {
          "internalType": "address",
          "name": "to",
          "type": "address"
        },
        {
          "internalType": "uint256",
          "name": "tokenId",
          "type": "uint256"
        },
        {
          "internalType": "bytes",
          "name": "data",
          "type": "bytes"
        }
      ],
      "name": "safeTransferFrom",
      "outputs": [],
      "stateMutability": "nonpayable",
      "type": "function"
    },
    {
      "inputs": [
        {
          "internalType": "address",
          "name": "operator",
          "type": "address"
        },
        {
          "internalType": "bool",
          "name": "approved",
          "type": "bool"
        }
      ],
      "name": "setApprovalForAll",
      "outputs": [],
      "stateMutability": "nonpayable",
      "type": "function"
    },
    {
      "inputs": [],
      "name": "stakingContract",
      "outputs": [
        {
          "internalType": "contract Staking",
          "name": "",
          "type": "address"
        }
      ],
      "stateMutability": "view",
      "type": "function"
    },
    {
      "inputs": [
        {
          "internalType": "bytes4",
          "name": "interfaceId",
          "type": "bytes4"
        }
      ],
      "name": "supportsInterface",
      "outputs": [
        {
          "internalType": "bool",
          "name": "",
          "type": "bool"
        }
      ],
      "stateMutability": "view",
      "type": "function"
    },
    {
      "inputs": [],
      "name": "symbol",
      "outputs": [
        {
          "internalType": "string",
          "name": "",
          "type": "string"
        }
      ],
      "stateMutability": "view",
      "type": "function"
    },
    {
      "inputs": [
        {
          "internalType": "uint256",
          "name": "tokenId",
          "type": "uint256"
        }
      ],
      "name": "tokenURI",
      "outputs": [
        {
          "internalType": "string",
          "name": "",
          "type": "string"
        }
      ],
      "stateMutability": "view",
      "type": "function"
    },
    {
      "inputs": [
        {
          "internalType": "address",
          "name": "from",
          "type": "address"
        },
        {
          "internalType": "address",
          "name": "to",
          "type": "address"
        },
        {
          "internalType": "uint256",
          "name": "tokenId",
          "type": "uint256"
        }
      ],
      "name": "transferFrom",
      "outputs": [],
      "stateMutability": "nonpayable",
      "type": "function"
    },
    {
      "inputs": [
        {
          "internalType": "address",
          "name": "newOwner",
          "type": "address"
        }
      ],
      "name": "transferOwnership",
      "outputs": [],
      "stateMutability": "nonpayable",
      "type": "function"
    },
    {
      "inputs": [
        {
          "internalType": "uint256",
          "name": "_projectId",
          "type": "uint256"
        },
        {
          "internalType": "address",
          "name": "_to",
          "type": "address"
        },
        {
          "internalType": "uint16",
          "name": "_shares",
          "type": "uint16"
        }
      ],
      "name": "transferShares",
      "outputs": [],
      "stateMutability": "nonpayable",
      "type": "function"
    }
  ],
  "bytecode": "0x60a060405234801561001057600080fd5b50604051615c5c380380615c5c833981810160405281019061003291906103c6565b336040518060400160405280600c81526020017f536572696550726f6a65637400000000000000000000000000000000000000008152506040518060400160405280600281526020017f535000000000000000000000000000000000000000000000000000000000000081525081600090816100ae9190610656565b5080600190816100be9190610656565b505050600073ffffffffffffffffffffffffffffffffffffffff168173ffffffffffffffffffffffffffffffffffffffff16036101335760006040517f1e4fbdf700000000000000000000000000000000000000000000000000000000815260040161012a9190610737565b60405180910390fd5b6101428161029d60201b60201c565b50600073ffffffffffffffffffffffffffffffffffffffff168273ffffffffffffffffffffffffffffffffffffffff16036101b2576040517f08c379a00000000000000000000000000000000000000000000000000000000081526004016101a9906107af565b60405180910390fd5b600073ffffffffffffffffffffffffffffffffffffffff168173ffffffffffffffffffffffffffffffffffffffff1603610221576040517f08c379a00000000000000000000000000000000000000000000000000000000081526004016102189061081b565b60405180910390fd5b8173ffffffffffffffffffffffffffffffffffffffff1660808173ffffffffffffffffffffffffffffffffffffffff168152505080600a60006101000a81548173ffffffffffffffffffffffffffffffffffffffff021916908373ffffffffffffffffffffffffffffffffffffffff160217905550505061083b565b6000600660009054906101000a900473ffffffffffffffffffffffffffffffffffffffff16905081600660006101000a81548173ffffffffffffffffffffffffffffffffffffffff021916908373ffffffffffffffffffffffffffffffffffffffff1602179055508173ffffffffffffffffffffffffffffffffffffffff168173ffffffffffffffffffffffffffffffffffffffff167f8be0079c531659141344cd1fd0a4f28419497f9722a3daafe3b4186f6b6457e060405160405180910390a35050565b600080fd5b600073ffffffffffffffffffffffffffffffffffffffff82169050919050565b600061039382610368565b9050919050565b6103a381610388565b81146103ae57600080fd5b50565b6000815190506103c08161039a565b92915050565b600080604083850312156103dd576103dc610363565b5b60006103eb858286016103b1565b92505060206103fc858286016103b1565b9150509250929050565b600081519050919050565b7f4e487b7100000000000000000000000000000000000000000000000000000000600052604160045260246000fd5b7f4e487b7100000000000000000000000000000000000000000000000000000000600052602260045260246000fd5b6000600282049050600182168061048757607f821691505b60208210810361049a57610499610440565b5b50919050565b60008190508160005260206000209050919050565b60006020601f8301049050919050565b600082821b905092915050565b6000600883026105027fffffffffffffffffffffffffffffffffffffffffffffffffffffffffffffffff826104c5565b61050c86836104c5565b95508019841693508086168417925050509392505050565b6000819050919050565b6000819050919050565b600061055361054e61054984610524565b61052e565b610524565b9050919050565b6000819050919050565b61056d83610538565b6105816105798261055a565b8484546104d2565b825550505050565b600090565b610596610589565b6105a1818484610564565b505050565b5b818110156105c5576105ba60008261058e565b6001810190506105a7565b5050565b601f82111561060a576105db816104a0565b6105e4846104b5565b810160208510156105f3578190505b6106076105ff856104b5565b8301826105a6565b50505b505050565b600082821c905092915050565b600061062d6000198460080261060f565b1980831691505092915050565b6000610646838361061c565b9150826002028217905092915050565b61065f82610406565b67ffffffffffffffff81111561067857610677610411565b5b610682825461046f565b61068d8282856105c9565b600060209050601f8311600181146106c057600084156106ae578287015190505b6106b8858261063a565b865550610720565b601f1984166106ce866104a0565b60005b828110156106f6578489015182556001820191506020850194506020810190506106d1565b86831015610713578489015161070f601f89168261061c565b8355505b6001600288020188555050505b505050505050565b61073181610388565b82525050565b600060208201905061074c6000830184610728565b92915050565b600082825260208201905092915050565b7f496e76616c6964205365726965436f696e206164647265737300000000000000600082015250565b6000610799601983610752565b91506107a482610763565b602082019050919050565b600060208201905081810360008301526107c88161078c565b9050919050565b7f496e76616c6964205374616b696e672061646472657373000000000000000000600082015250565b6000610805601783610752565b9150610810826107cf565b602082019050919050565b60006020820190508181036000830152610834816107f8565b9050919050565b6080516153ff61085d60003960008181611bc8015261270d01526153ff6000f3fe608060405234801561001057600080fd5b50600436106101cf5760003560e01c80635b7baf6411610104578063970ac6fd116100a2578063d1c2cc7a11610071578063d1c2cc7a14610559578063e985e9c514610575578063ee99205c146105a5578063f2fde38b146105c3576101cf565b8063970ac6fd146104d5578063a22cb465146104f1578063b88d4fde1461050d578063c87b56dd14610529576101cf565b8063715018a6116100de578063715018a61461045f5780638da5cb5b1461046957806395d89b41146104875780639675c009146104a5576101cf565b80635b7baf64146103e35780636352211e146103ff57806370a082311461042f576101cf565b806323b872dd1161017157806342842e0e1161014b57806342842e0e1461034b57806343437709146103675780634570723d146103975780634d7142b1146103b3576101cf565b806323b872dd146102f55780632b4e74d91461031157806336fbad261461032d576101cf565b8063095ea7b3116101ad578063095ea7b314610252578063107046bd1461026e5780631112a78b146102a95780632245f152146102d9576101cf565b806301ffc9a7146101d457806306fdde0314610204578063081812fc14610222575b600080fd5b6101ee60048036038101906101e9919061377f565b6105df565b6040516101fb91906137c7565b60405180910390f35b61020c6106c1565b6040516102199190613872565b60405180910390f35b61023c600480360381019061023791906138ca565b610753565b6040516102499190613938565b60405180910390f35b61026c6004803603810190610267919061397f565b61076f565b005b610288600480360381019061028391906138ca565b610785565b6040516102a09c9b9a99989796959493929190613a99565b60405180910390f35b6102c360048036038101906102be9190613b6f565b610aad565b6040516102d09190613bbe565b60405180910390f35b6102f360048036038101906102ee91906138ca565b610ba8565b005b61030f600480360381019061030a9190613bd9565b610e12565b005b61032b60048036038101906103269190613c58565b610f14565b005b610335611288565b6040516103429190613cab565b60405180910390f35b61036560048036038101906103609190613bd9565b61129e565b005b610381600480360381019061037c9190613b6f565b6112be565b60405161038e9190613cc6565b60405180910390f35b6103b160048036038101906103ac9190613d9e565b6112ee565b005b6103cd60048036038101906103c891906138ca565b6117ba565b6040516103da9190613872565b60405180910390f35b6103fd60048036038101906103f891906138ca565b6118b1565b005b610419600480360381019061041491906138ca565b611cf9565b6040516104269190613938565b60405180910390f35b61044960048036038101906104449190613eae565b611d0b565b6040516104569190613bbe565b60405180910390f35b610467611dc5565b005b610471611dd9565b60405161047e9190613938565b60405180910390f35b61048f611e03565b60405161049c9190613872565b60405180910390f35b6104bf60048036038101906104ba91906138ca565b611e95565b6040516104cc9190613edb565b60405180910390f35b6104ef60048036038101906104ea91906138ca565b611f11565b005b61050b60048036038101906105069190613f22565b612061565b005b61052760048036038101906105229190614092565b612077565b005b610543600480360381019061053e91906138ca565b61209c565b6040516105509190613872565b60405180910390f35b610573600480360381019061056e9190614115565b612193565b005b61058f600480360381019061058a9190614155565b612983565b60405161059c91906137c7565b60405180910390f35b6105ad612a17565b6040516105ba91906141f4565b60405180910390f35b6105dd60048036038101906105d89190613eae565b612a3d565b005b60007f80ac58cd000000000000000000000000000000000000000000000000000000007bffffffffffffffffffffffffffffffffffffffffffffffffffffffff1916827bffffffffffffffffffffffffffffffffffffffffffffffffffffffff191614806106aa57507f5b5e139f000000000000000000000000000000000000000000000000000000007bffffffffffffffffffffffffffffffffffffffffffffffffffffffff1916827bffffffffffffffffffffffffffffffffffffffffffffffffffffffff1916145b806106ba57506106b982612ac3565b5b9050919050565b6060600080546106d09061423e565b80601f01602080910402602001604051908101604052809291908181526020018280546106fc9061423e565b80156107495780601f1061071e57610100808354040283529160200191610749565b820191906000526020600020905b81548152906001019060200180831161072c57829003601f168201915b5050505050905090565b600061075e82612b2d565b5061076882612bb5565b9050919050565b610781828261077c612bf2565b612bfa565b5050565b6007818154811061079557600080fd5b90600052602060002090600602016000915090508060000160009054906101000a90046bffffffffffffffffffffffff169080600001600c9054906101000a90046bffffffffffffffffffffffff16908060000160189054906101000a900463ffffffff169080600001601c9054906101000a900463ffffffff16908060010160009054906101000a900461ffff16908060010160029054906101000a900460ff16908060010160039054906101000a900473ffffffffffffffffffffffffffffffffffffffff16908060010160179054906101000a900460ff16908060020180546108809061423e565b80601f01602080910402602001604051908101604052809291908181526020018280546108ac9061423e565b80156108f95780601f106108ce576101008083540402835291602001916108f9565b820191906000526020600020905b8154815290600101906020018083116108dc57829003601f168201915b50505050509080600301805461090e9061423e565b80601f016020809104026020016040519081016040528092919081815260200182805461093a9061423e565b80156109875780601f1061095c57610100808354040283529160200191610987565b820191906000526020600020905b81548152906001019060200180831161096a57829003601f168201915b50505050509080600401805461099c9061423e565b80601f01602080910402602001604051908101604052809291908181526020018280546109c89061423e565b8015610a155780601f106109ea57610100808354040283529160200191610a15565b820191906000526020600020905b8154815290600101906020018083116109f857829003601f168201915b505050505090806005018054610a2a9061423e565b80601f0160208091040260200160405190810160405280929190818152602001828054610a569061423e565b8015610aa35780601f10610a7857610100808354040283529160200191610aa3565b820191906000526020600020905b815481529060010190602001808311610a8657829003601f168201915b505050505090508c565b6000826007805490508110610aee576040517f38fde52b00000000000000000000000000000000000000000000000000000000815260040160405180910390fd5b60078481548110610b0257610b0161426f565b5b906000526020600020906006020160010160009054906101000a900461ffff1661ffff1660646009600087815260200190815260200160002060008673ffffffffffffffffffffffffffffffffffffffff1673ffffffffffffffffffffffffffffffffffffffff16815260200190815260200160002060009054906101000a900461ffff1661ffff16610b9591906142cd565b610b9f919061433e565b91505092915050565b806007805490508110610be7576040517f38fde52b00000000000000000000000000000000000000000000000000000000815260040160405180910390fd5b600060078381548110610bfd57610bfc61426f565b5b906000526020600020906006020190503373ffffffffffffffffffffffffffffffffffffffff168160010160039054906101000a900473ffffffffffffffffffffffffffffffffffffffff1673ffffffffffffffffffffffffffffffffffffffff1614610c9f576040517f08c379a0000000000000000000000000000000000000000000000000000000008152600401610c96906143e1565b60405180910390fd5b60016002811115610cb357610cb2613a22565b5b8160010160179054906101000a900460ff166002811115610cd757610cd6613a22565b5b14610d17576040517f08c379a0000000000000000000000000000000000000000000000000000000008152600401610d0e9061444d565b60405180910390fd5b620151808160000160189054906101000a900463ffffffff1663ffffffff16610d4091906142cd565b81600001601c9054906101000a900463ffffffff1663ffffffff16610d65919061446d565b421015610da7576040517f08c379a0000000000000000000000000000000000000000000000000000000008152600401610d9e906144ed565b60405180910390fd5b60028160010160176101000a81548160ff02191690836002811115610dcf57610dce613a22565b5b0217905550827f35872be4c2085eaf9ca9a10d056eefec79968f825846792411ede75f331e93926002604051610e059190613edb565b60405180910390a2505050565b600073ffffffffffffffffffffffffffffffffffffffff168273ffffffffffffffffffffffffffffffffffffffff1603610e845760006040517f64a0ae92000000000000000000000000000000000000000000000000000000008152600401610e7b9190613938565b60405180910390fd5b6000610e988383610e93612bf2565b612c0c565b90508373ffffffffffffffffffffffffffffffffffffffff168173ffffffffffffffffffffffffffffffffffffffff1614610f0e578382826040517f64283d7b000000000000000000000000000000000000000000000000000000008152600401610f059392919061450d565b60405180910390fd5b50505050565b826007805490508110610f53576040517f38fde52b00000000000000000000000000000000000000000000000000000000815260040160405180910390fd5b600073ffffffffffffffffffffffffffffffffffffffff168373ffffffffffffffffffffffffffffffffffffffff1603610fc2576040517f08c379a0000000000000000000000000000000000000000000000000000000008152600401610fb990614590565b60405180910390fd5b3373ffffffffffffffffffffffffffffffffffffffff168373ffffffffffffffffffffffffffffffffffffffff1603611030576040517f08c379a000000000000000000000000000000000000000000000000000000000815260040161102790614622565b60405180910390fd5b60008261ffff1611611077576040517f08c379a000000000000000000000000000000000000000000000000000000000815260040161106e9061468e565b60405180910390fd5b8161ffff166009600086815260200190815260200160002060003373ffffffffffffffffffffffffffffffffffffffff1673ffffffffffffffffffffffffffffffffffffffff16815260200190815260200160002060009054906101000a900461ffff1661ffff161015611120576040517f08c379a0000000000000000000000000000000000000000000000000000000008152600401611117906146fa565b60405180910390fd5b816009600086815260200190815260200160002060003373ffffffffffffffffffffffffffffffffffffffff1673ffffffffffffffffffffffffffffffffffffffff16815260200190815260200160002060008282829054906101000a900461ffff160392506101000a81548161ffff021916908361ffff160217905550816009600086815260200190815260200160002060008573ffffffffffffffffffffffffffffffffffffffff1673ffffffffffffffffffffffffffffffffffffffff16815260200190815260200160002060008282829054906101000a900461ffff160192506101000a81548161ffff021916908361ffff1602179055508273ffffffffffffffffffffffffffffffffffffffff163373ffffffffffffffffffffffffffffffffffffffff16857f333bbff7155ed997e8443a83b6e7140fd17a578daa83cb566f2f4eb680d279a18560405161127a9190613cc6565b60405180910390a450505050565b600860009054906101000a900463ffffffff1681565b6112b983838360405180602001604052806000815250612077565b505050565b60096020528160005260406000206020528060005260406000206000915091509054906101000a900461ffff1681565b6000866bffffffffffffffffffffffff161161133f576040517f08c379a00000000000000000000000000000000000000000000000000000000081526004016113369061478c565b60405180910390fd5b60008563ffffffff1611801561135d5750610e428563ffffffff1611155b61139c576040517f08c379a0000000000000000000000000000000000000000000000000000000008152600401611393906147f8565b60405180910390fd5b60008a8a90501180156113b3575060c88a8a905011155b6113f2576040517f08c379a00000000000000000000000000000000000000000000000000000000081526004016113e990614864565b60405180910390fd5b60008888905011611438576040517f08c379a000000000000000000000000000000000000000000000000000000000815260040161142f906148d0565b60405180910390fd5b6000848490501161147e576040517f08c379a00000000000000000000000000000000000000000000000000000000081526004016114759061493c565b60405180910390fd5b600082829050116114c4576040517f08c379a00000000000000000000000000000000000000000000000000000000081526004016114bb906149a8565b60405180910390fd5b6000600860009054906101000a900463ffffffff1690506000600760018160018154018082558091505003906000526020600020906006020190508b8b826002019182611512929190614b75565b508989826003019182611526929190614b75565b50878160000160006101000a8154816bffffffffffffffffffffffff02191690836bffffffffffffffffffffffff160217905550868160000160186101000a81548163ffffffff021916908363ffffffff160217905550338160010160036101000a81548173ffffffffffffffffffffffffffffffffffffffff021916908373ffffffffffffffffffffffffffffffffffffffff16021790555060008160010160176101000a81548160ff021916908360028111156115e8576115e7613a22565b5b02179055508585826004019182611600929190614b75565b506127108160010160006101000a81548161ffff021916908361ffff1602179055508383826005019182611635929190614b75565b5060008160010160026101000a81548160ff021916908315150217905550611663338363ffffffff16612e26565b612710600960008463ffffffff16815260200190815260200160002060003373ffffffffffffffffffffffffffffffffffffffff1673ffffffffffffffffffffffffffffffffffffffff16815260200190815260200160002060006101000a81548161ffff021916908361ffff1602179055503373ffffffffffffffffffffffffffffffffffffffff168263ffffffff167f0d2b32b6c43cc2b3faf3cd128225ac318d5961c7aec8ca50b6ea78e3471361b68e8e88886040516117299493929190614c72565b60405180910390a38163ffffffff167fff207fac856b3d65e51a678979415c276e6ec4b8add10067fbd9274487eec0ae8787604051611769929190614cad565b60405180910390a26008600081819054906101000a900463ffffffff168092919060010191906101000a81548163ffffffff021916908363ffffffff16021790555050505050505050505050505050565b60608160078054905081106117fb576040517f38fde52b00000000000000000000000000000000000000000000000000000000815260040160405180910390fd5b6007838154811061180f5761180e61426f565b5b9060005260206000209060060201600401805461182b9061423e565b80601f01602080910402602001604051908101604052809291908181526020018280546118579061423e565b80156118a45780601f10611879576101008083540402835291602001916118a4565b820191906000526020600020905b81548152906001019060200180831161188757829003601f168201915b5050505050915050919050565b8060078054905081106118f0576040517f38fde52b00000000000000000000000000000000000000000000000000000000815260040160405180910390fd5b6000600783815481106119065761190561426f565b5b9060005260206000209060060201905060028081111561192957611928613a22565b5b8160010160179054906101000a900460ff16600281111561194d5761194c613a22565b5b1461198d576040517f08c379a000000000000000000000000000000000000000000000000000000000815260040161198490614d1d565b60405180910390fd5b8060010160029054906101000a900460ff16156119df576040517f08c379a00000000000000000000000000000000000000000000000000000000081526004016119d690614d89565b60405180910390fd5b60006009600085815260200190815260200160002060003373ffffffffffffffffffffffffffffffffffffffff1673ffffffffffffffffffffffffffffffffffffffff16815260200190815260200160002060009054906101000a900461ffff1661ffff1611611a84576040517f08c379a0000000000000000000000000000000000000000000000000000000008152600401611a7b90614df5565b60405180910390fd5b60006009600085815260200190815260200160002060003373ffffffffffffffffffffffffffffffffffffffff1673ffffffffffffffffffffffffffffffffffffffff16815260200190815260200160002060009054906101000a900461ffff16905060008260000160009054906101000a90046bffffffffffffffffffffffff166bffffffffffffffffffffffff1683600001600c9054906101000a90046bffffffffffffffffffffffff166bffffffffffffffffffffffff168361ffff16611b4e91906142cd565b611b58919061433e565b905060006009600087815260200190815260200160002060003373ffffffffffffffffffffffffffffffffffffffff1673ffffffffffffffffffffffffffffffffffffffff16815260200190815260200160002060006101000a81548161ffff021916908361ffff1602179055507f000000000000000000000000000000000000000000000000000000000000000073ffffffffffffffffffffffffffffffffffffffff1663a9059cbb33836040518363ffffffff1660e01b8152600401611c21929190614e46565b6020604051808303816000875af1158015611c40573d6000803e3d6000fd5b505050506040513d601f19601f82011682018060405250810190611c649190614e84565b611ca3576040517f08c379a0000000000000000000000000000000000000000000000000000000008152600401611c9a90614efd565b60405180910390fd5b3373ffffffffffffffffffffffffffffffffffffffff16857f6fd108bcd9afa1ee53e6efdf27e3af47b5291b04da58fe2c1414241777b1bf4d83604051611cea9190614f1d565b60405180910390a35050505050565b6000611d0482612b2d565b9050919050565b60008073ffffffffffffffffffffffffffffffffffffffff168273ffffffffffffffffffffffffffffffffffffffff1603611d7e5760006040517f89c62b64000000000000000000000000000000000000000000000000000000008152600401611d759190613938565b60405180910390fd5b600360008373ffffffffffffffffffffffffffffffffffffffff1673ffffffffffffffffffffffffffffffffffffffff168152602001908152602001600020549050919050565b611dcd612f1f565b611dd76000612fa6565b565b6000600660009054906101000a900473ffffffffffffffffffffffffffffffffffffffff16905090565b606060018054611e129061423e565b80601f0160208091040260200160405190810160405280929190818152602001828054611e3e9061423e565b8015611e8b5780601f10611e6057610100808354040283529160200191611e8b565b820191906000526020600020905b815481529060010190602001808311611e6e57829003601f168201915b5050505050905090565b6000816007805490508110611ed6576040517f38fde52b00000000000000000000000000000000000000000000000000000000815260040160405180910390fd5b60078381548110611eea57611ee961426f565b5b906000526020600020906006020160010160179054906101000a900460ff16915050919050565b611f19612f1f565b806007805490508110611f58576040517f38fde52b00000000000000000000000000000000000000000000000000000000815260040160405180910390fd5b600060078381548110611f6e57611f6d61426f565b5b9060005260206000209060060201905060016002811115611f9257611f91613a22565b5b8160010160179054906101000a900460ff166002811115611fb657611fb5613a22565b5b14611ff6576040517f08c379a0000000000000000000000000000000000000000000000000000000008152600401611fed9061444d565b60405180910390fd5b60028160010160176101000a81548160ff0219169083600281111561201e5761201d613a22565b5b0217905550827f35872be4c2085eaf9ca9a10d056eefec79968f825846792411ede75f331e939260026040516120549190613edb565b60405180910390a2505050565b61207361206c612bf2565b838361306c565b5050565b612082848484610e12565b61209661208d612bf2565b858585856131db565b50505050565b60608160078054905081106120dd576040517f38fde52b00000000000000000000000000000000000000000000000000000000815260040160405180910390fd5b600783815481106120f1576120f061426f565b5b9060005260206000209060060201600501805461210d9061423e565b80601f01602080910402602001604051908101604052809291908181526020018280546121399061423e565b80156121865780601f1061215b57610100808354040283529160200191612186565b820191906000526020600020905b81548152906001019060200180831161216957829003601f168201915b5050505050915050919050565b8160078054905081106121d2576040517f38fde52b00000000000000000000000000000000000000000000000000000000815260040160405180910390fd5b6000600784815481106121e8576121e761426f565b5b90600052602060002090600602019050600081600001600c9054906101000a90046bffffffffffffffffffffffff16905060008260000160009054906101000a90046bffffffffffffffffffffffff169050806bffffffffffffffffffffffff1685836122559190614f38565b6bffffffffffffffffffffffff1611156122a4576040517f08c379a000000000000000000000000000000000000000000000000000000000815260040161229b90614fc4565b60405180910390fd5b600060028111156122b8576122b7613a22565b5b8360010160179054906101000a900460ff1660028111156122dc576122db613a22565b5b1461231c576040517f08c379a000000000000000000000000000000000000000000000000000000000815260040161231390615030565b60405180910390fd5b6000856bffffffffffffffffffffffff161161236d576040517f08c379a00000000000000000000000000000000000000000000000000000000081526004016123649061468e565b60405180910390fd5b8260010160039054906101000a900473ffffffffffffffffffffffffffffffffffffffff1673ffffffffffffffffffffffffffffffffffffffff163373ffffffffffffffffffffffffffffffffffffffff16036123ff576040517f08c379a00000000000000000000000000000000000000000000000000000000081526004016123f6906150c2565b60405180910390fd5b6000858361240d9190614f38565b90506000826bffffffffffffffffffffffff168560010160009054906101000a900461ffff1661ffff16886bffffffffffffffffffffffff1661245091906142cd565b61245a919061433e565b905061ffff8016836bffffffffffffffffffffffff168660010160009054906101000a900461ffff1661ffff16896bffffffffffffffffffffffff166124a091906142cd565b6124aa919061433e565b11156124eb576040517f08c379a00000000000000000000000000000000000000000000000000000000081526004016124e29061512e565b60405180910390fd5b8061ffff16600960008a815260200190815260200160002060008760010160039054906101000a900473ffffffffffffffffffffffffffffffffffffffff1673ffffffffffffffffffffffffffffffffffffffff1673ffffffffffffffffffffffffffffffffffffffff16815260200190815260200160002060009054906101000a900461ffff1661ffff1610156125b8576040517f08c379a00000000000000000000000000000000000000000000000000000000081526004016125af9061519a565b60405180910390fd5b8185600001600c6101000a8154816bffffffffffffffffffffffff02191690836bffffffffffffffffffffffff16021790555080600960008a815260200190815260200160002060008760010160039054906101000a900473ffffffffffffffffffffffffffffffffffffffff1673ffffffffffffffffffffffffffffffffffffffff1673ffffffffffffffffffffffffffffffffffffffff16815260200190815260200160002060008282829054906101000a900461ffff160392506101000a81548161ffff021916908361ffff16021790555080600960008a815260200190815260200160002060003373ffffffffffffffffffffffffffffffffffffffff1673ffffffffffffffffffffffffffffffffffffffff16815260200190815260200160002060008282829054906101000a900461ffff160192506101000a81548161ffff021916908361ffff1602179055507f000000000000000000000000000000000000000000000000000000000000000073ffffffffffffffffffffffffffffffffffffffff166323b872dd33308a6040518463ffffffff1660e01b8152600401612768939291906151ba565b6020604051808303816000875af1158015612787573d6000803e3d6000fd5b505050506040513d601f19601f820116820180604052508101906127ab9190614e84565b6127ea576040517f08c379a00000000000000000000000000000000000000000000000000000000081526004016127e19061523d565b60405180910390fd5b600a60009054906101000a900473ffffffffffffffffffffffffffffffffffffffff1673ffffffffffffffffffffffffffffffffffffffff16637668ffe289338a6040518463ffffffff1660e01b81526004016128499392919061525d565b600060405180830381600087803b15801561286357600080fd5b505af1158015612877573d6000803e3d6000fd5b50505050826bffffffffffffffffffffffff16826bffffffffffffffffffffffff16106129285760018560010160176101000a81548160ff021916908360028111156128c6576128c5613a22565b5b02179055504285600001601c6101000a81548163ffffffff021916908363ffffffff160217905550877f35872be4c2085eaf9ca9a10d056eefec79968f825846792411ede75f331e9392600160405161291f9190613edb565b60405180910390a25b3373ffffffffffffffffffffffffffffffffffffffff16887f3a2bb1be690cb0976473d71b3a16e010e628fe9d9bf981c11e60864c556c8f388984604051612971929190615294565b60405180910390a35050505050505050565b6000600560008473ffffffffffffffffffffffffffffffffffffffff1673ffffffffffffffffffffffffffffffffffffffff16815260200190815260200160002060008373ffffffffffffffffffffffffffffffffffffffff1673ffffffffffffffffffffffffffffffffffffffff16815260200190815260200160002060009054906101000a900460ff16905092915050565b600a60009054906101000a900473ffffffffffffffffffffffffffffffffffffffff1681565b612a45612f1f565b600073ffffffffffffffffffffffffffffffffffffffff168173ffffffffffffffffffffffffffffffffffffffff1603612ab75760006040517f1e4fbdf7000000000000000000000000000000000000000000000000000000008152600401612aae9190613938565b60405180910390fd5b612ac081612fa6565b50565b60007f01ffc9a7000000000000000000000000000000000000000000000000000000007bffffffffffffffffffffffffffffffffffffffffffffffffffffffff1916827bffffffffffffffffffffffffffffffffffffffffffffffffffffffff1916149050919050565b600080612b398361338c565b9050600073ffffffffffffffffffffffffffffffffffffffff168173ffffffffffffffffffffffffffffffffffffffff1603612bac57826040517f7e273289000000000000000000000000000000000000000000000000000000008152600401612ba39190613bbe565b60405180910390fd5b80915050919050565b60006004600083815260200190815260200160002060009054906101000a900473ffffffffffffffffffffffffffffffffffffffff169050919050565b600033905090565b612c0783838360016133c9565b505050565b600080612c188461338c565b9050600073ffffffffffffffffffffffffffffffffffffffff168373ffffffffffffffffffffffffffffffffffffffff1614612c5a57612c5981848661358e565b5b600073ffffffffffffffffffffffffffffffffffffffff168173ffffffffffffffffffffffffffffffffffffffff1614612ceb57612c9c6000856000806133c9565b6001600360008373ffffffffffffffffffffffffffffffffffffffff1673ffffffffffffffffffffffffffffffffffffffff168152602001908152602001600020600082825403925050819055505b600073ffffffffffffffffffffffffffffffffffffffff168573ffffffffffffffffffffffffffffffffffffffff1614612d6e576001600360008773ffffffffffffffffffffffffffffffffffffffff1673ffffffffffffffffffffffffffffffffffffffff168152602001908152602001600020600082825401925050819055505b846002600086815260200190815260200160002060006101000a81548173ffffffffffffffffffffffffffffffffffffffff021916908373ffffffffffffffffffffffffffffffffffffffff160217905550838573ffffffffffffffffffffffffffffffffffffffff168273ffffffffffffffffffffffffffffffffffffffff167fddf252ad1be2c89b69c2b068fc378daa952ba7f163c4a11628f55a4df523b3ef60405160405180910390a4809150509392505050565b600073ffffffffffffffffffffffffffffffffffffffff168273ffffffffffffffffffffffffffffffffffffffff1603612e985760006040517f64a0ae92000000000000000000000000000000000000000000000000000000008152600401612e8f9190613938565b60405180910390fd5b6000612ea683836000612c0c565b9050600073ffffffffffffffffffffffffffffffffffffffff168173ffffffffffffffffffffffffffffffffffffffff1614612f1a5760006040517f73c6ac6e000000000000000000000000000000000000000000000000000000008152600401612f119190613938565b60405180910390fd5b505050565b612f27612bf2565b73ffffffffffffffffffffffffffffffffffffffff16612f45611dd9565b73ffffffffffffffffffffffffffffffffffffffff1614612fa457612f68612bf2565b6040517f118cdaa7000000000000000000000000000000000000000000000000000000008152600401612f9b9190613938565b60405180910390fd5b565b6000600660009054906101000a900473ffffffffffffffffffffffffffffffffffffffff16905081600660006101000a81548173ffffffffffffffffffffffffffffffffffffffff021916908373ffffffffffffffffffffffffffffffffffffffff1602179055508173ffffffffffffffffffffffffffffffffffffffff168173ffffffffffffffffffffffffffffffffffffffff167f8be0079c531659141344cd1fd0a4f28419497f9722a3daafe3b4186f6b6457e060405160405180910390a35050565b600073ffffffffffffffffffffffffffffffffffffffff168273ffffffffffffffffffffffffffffffffffffffff16036130dd57816040517f5b08ba180000000000000000000000000000000000000000000000000000000081526004016130d49190613938565b60405180910390fd5b80600560008573ffffffffffffffffffffffffffffffffffffffff1673ffffffffffffffffffffffffffffffffffffffff16815260200190815260200160002060008473ffffffffffffffffffffffffffffffffffffffff1673ffffffffffffffffffffffffffffffffffffffff16815260200190815260200160002060006101000a81548160ff0219169083151502179055508173ffffffffffffffffffffffffffffffffffffffff168373ffffffffffffffffffffffffffffffffffffffff167f17307eab39ab6107e8899845ad3d59bd9653f200f220920489ca2b5937696c31836040516131ce91906137c7565b60405180910390a3505050565b60008373ffffffffffffffffffffffffffffffffffffffff163b1115613385578273ffffffffffffffffffffffffffffffffffffffff1663150b7a02868685856040518563ffffffff1660e01b815260040161323a9493929190615312565b6020604051808303816000875af192505050801561327657506040513d601f19601f820116820180604052508101906132739190615373565b60015b6132fa573d80600081146132a6576040519150601f19603f3d011682016040523d82523d6000602084013e6132ab565b606091505b5060008151036132f257836040517f64a0ae920000000000000000000000000000000000000000000000000000000081526004016132e99190613938565b60405180910390fd5b805181602001fd5b63150b7a0260e01b7bffffffffffffffffffffffffffffffffffffffffffffffffffffffff1916817bffffffffffffffffffffffffffffffffffffffffffffffffffffffff19161461338357836040517f64a0ae9200000000000000000000000000000000000000000000000000000000815260040161337a9190613938565b60405180910390fd5b505b5050505050565b60006002600083815260200190815260200160002060009054906101000a900473ffffffffffffffffffffffffffffffffffffffff169050919050565b80806134025750600073ffffffffffffffffffffffffffffffffffffffff168273ffffffffffffffffffffffffffffffffffffffff1614155b1561353657600061341284612b2d565b9050600073ffffffffffffffffffffffffffffffffffffffff168373ffffffffffffffffffffffffffffffffffffffff161415801561347d57508273ffffffffffffffffffffffffffffffffffffffff168173ffffffffffffffffffffffffffffffffffffffff1614155b8015613490575061348e8184612983565b155b156134d257826040517fa9fbf51f0000000000000000000000000000000000000000000000000000000081526004016134c99190613938565b60405180910390fd5b811561353457838573ffffffffffffffffffffffffffffffffffffffff168273ffffffffffffffffffffffffffffffffffffffff167f8c5be1e5ebec7d5bd14f71427d1e84f3dd0314c0f7b2291e5b200ac8c7c3b92560405160405180910390a45b505b836004600085815260200190815260200160002060006101000a81548173ffffffffffffffffffffffffffffffffffffffff021916908373ffffffffffffffffffffffffffffffffffffffff16021790555050505050565b613599838383613652565b61364d57600073ffffffffffffffffffffffffffffffffffffffff168373ffffffffffffffffffffffffffffffffffffffff160361360e57806040517f7e2732890000000000000000000000000000000000000000000000000000000081526004016136059190613bbe565b60405180910390fd5b81816040517f177e802f0000000000000000000000000000000000000000000000000000000081526004016136449291906153a0565b60405180910390fd5b505050565b60008073ffffffffffffffffffffffffffffffffffffffff168373ffffffffffffffffffffffffffffffffffffffff161415801561370a57508273ffffffffffffffffffffffffffffffffffffffff168473ffffffffffffffffffffffffffffffffffffffff1614806136cb57506136ca8484612983565b5b8061370957508273ffffffffffffffffffffffffffffffffffffffff166136f183612bb5565b73ffffffffffffffffffffffffffffffffffffffff16145b5b90509392505050565b6000604051905090565b600080fd5b600080fd5b60007fffffffff0000000000000000000000000000000000000000000000000000000082169050919050565b61375c81613727565b811461376757600080fd5b50565b60008135905061377981613753565b92915050565b6000602082840312156137955761379461371d565b5b60006137a38482850161376a565b91505092915050565b60008115159050919050565b6137c1816137ac565b82525050565b60006020820190506137dc60008301846137b8565b92915050565b600081519050919050565b600082825260208201905092915050565b60005b8381101561381c578082015181840152602081019050613801565b60008484015250505050565b6000601f19601f8301169050919050565b6000613844826137e2565b61384e81856137ed565b935061385e8185602086016137fe565b61386781613828565b840191505092915050565b6000602082019050818103600083015261388c8184613839565b905092915050565b6000819050919050565b6138a781613894565b81146138b257600080fd5b50565b6000813590506138c48161389e565b92915050565b6000602082840312156138e0576138df61371d565b5b60006138ee848285016138b5565b91505092915050565b600073ffffffffffffffffffffffffffffffffffffffff82169050919050565b6000613922826138f7565b9050919050565b61393281613917565b82525050565b600060208201905061394d6000830184613929565b92915050565b61395c81613917565b811461396757600080fd5b50565b60008135905061397981613953565b92915050565b600080604083850312156139965761399561371d565b5b60006139a48582860161396a565b92505060206139b5858286016138b5565b9150509250929050565b60006bffffffffffffffffffffffff82169050919050565b6139e0816139bf565b82525050565b600063ffffffff82169050919050565b6139ff816139e6565b82525050565b600061ffff82169050919050565b613a1c81613a05565b82525050565b7f4e487b7100000000000000000000000000000000000000000000000000000000600052602160045260246000fd5b60038110613a6257613a61613a22565b5b50565b6000819050613a7382613a51565b919050565b6000613a8382613a65565b9050919050565b613a9381613a78565b82525050565b600061018082019050613aaf600083018f6139d7565b613abc602083018e6139d7565b613ac9604083018d6139f6565b613ad6606083018c6139f6565b613ae3608083018b613a13565b613af060a083018a6137b8565b613afd60c0830189613929565b613b0a60e0830188613a8a565b818103610100830152613b1d8187613839565b9050818103610120830152613b328186613839565b9050818103610140830152613b478185613839565b9050818103610160830152613b5c8184613839565b90509d9c50505050505050505050505050565b60008060408385031215613b8657613b8561371d565b5b6000613b94858286016138b5565b9250506020613ba58582860161396a565b9150509250929050565b613bb881613894565b82525050565b6000602082019050613bd36000830184613baf565b92915050565b600080600060608486031215613bf257613bf161371d565b5b6000613c008682870161396a565b9350506020613c118682870161396a565b9250506040613c22868287016138b5565b9150509250925092565b613c3581613a05565b8114613c4057600080fd5b50565b600081359050613c5281613c2c565b92915050565b600080600060608486031215613c7157613c7061371d565b5b6000613c7f868287016138b5565b9350506020613c908682870161396a565b9250506040613ca186828701613c43565b9150509250925092565b6000602082019050613cc060008301846139f6565b92915050565b6000602082019050613cdb6000830184613a13565b92915050565b600080fd5b600080fd5b600080fd5b60008083601f840112613d0657613d05613ce1565b5b8235905067ffffffffffffffff811115613d2357613d22613ce6565b5b602083019150836001820283011115613d3f57613d3e613ceb565b5b9250929050565b613d4f816139bf565b8114613d5a57600080fd5b50565b600081359050613d6c81613d46565b92915050565b613d7b816139e6565b8114613d8657600080fd5b50565b600081359050613d9881613d72565b92915050565b60008060008060008060008060008060c08b8d031215613dc157613dc061371d565b5b60008b013567ffffffffffffffff811115613ddf57613dde613722565b5b613deb8d828e01613cf0565b9a509a505060208b013567ffffffffffffffff811115613e0e57613e0d613722565b5b613e1a8d828e01613cf0565b98509850506040613e2d8d828e01613d5d565b9650506060613e3e8d828e01613d89565b95505060808b013567ffffffffffffffff811115613e5f57613e5e613722565b5b613e6b8d828e01613cf0565b945094505060a08b013567ffffffffffffffff811115613e8e57613e8d613722565b5b613e9a8d828e01613cf0565b92509250509295989b9194979a5092959850565b600060208284031215613ec457613ec361371d565b5b6000613ed28482850161396a565b91505092915050565b6000602082019050613ef06000830184613a8a565b92915050565b613eff816137ac565b8114613f0a57600080fd5b50565b600081359050613f1c81613ef6565b92915050565b60008060408385031215613f3957613f3861371d565b5b6000613f478582860161396a565b9250506020613f5885828601613f0d565b9150509250929050565b600080fd5b7f4e487b7100000000000000000000000000000000000000000000000000000000600052604160045260246000fd5b613f9f82613828565b810181811067ffffffffffffffff82111715613fbe57613fbd613f67565b5b80604052505050565b6000613fd1613713565b9050613fdd8282613f96565b919050565b600067ffffffffffffffff821115613ffd57613ffc613f67565b5b61400682613828565b9050602081019050919050565b82818337600083830152505050565b600061403561403084613fe2565b613fc7565b90508281526020810184848401111561405157614050613f62565b5b61405c848285614013565b509392505050565b600082601f83011261407957614078613ce1565b5b8135614089848260208601614022565b91505092915050565b600080600080608085870312156140ac576140ab61371d565b5b60006140ba8782880161396a565b94505060206140cb8782880161396a565b93505060406140dc878288016138b5565b925050606085013567ffffffffffffffff8111156140fd576140fc613722565b5b61410987828801614064565b91505092959194509250565b6000806040838503121561412c5761412b61371d565b5b600061413a858286016138b5565b925050602061414b85828601613d5d565b9150509250929050565b6000806040838503121561416c5761416b61371d565b5b600061417a8582860161396a565b925050602061418b8582860161396a565b9150509250929050565b6000819050919050565b60006141ba6141b56141b0846138f7565b614195565b6138f7565b9050919050565b60006141cc8261419f565b9050919050565b60006141de826141c1565b9050919050565b6141ee816141d3565b82525050565b600060208201905061420960008301846141e5565b92915050565b7f4e487b7100000000000000000000000000000000000000000000000000000000600052602260045260246000fd5b6000600282049050600182168061425657607f821691505b6020821081036142695761426861420f565b5b50919050565b7f4e487b7100000000000000000000000000000000000000000000000000000000600052603260045260246000fd5b7f4e487b7100000000000000000000000000000000000000000000000000000000600052601160045260246000fd5b60006142d882613894565b91506142e383613894565b92508282026142f181613894565b915082820484148315176143085761430761429e565b5b5092915050565b7f4e487b7100000000000000000000000000000000000000000000000000000000600052601260045260246000fd5b600061434982613894565b915061435483613894565b9250826143645761436361430f565b5b828204905092915050565b7f4f6e6c792070726f64756365722063616e20636f6d706c6574652070726f6a6560008201527f6374000000000000000000000000000000000000000000000000000000000000602082015250565b60006143cb6022836137ed565b91506143d68261436f565b604082019050919050565b600060208201905081810360008301526143fa816143be565b9050919050565b7f50726f6a656374206e6f7420696e2070726f64756374696f6e00000000000000600082015250565b60006144376019836137ed565b915061444282614401565b602082019050919050565b600060208201905081810360008301526144668161442a565b9050919050565b600061447882613894565b915061448383613894565b925082820190508082111561449b5761449a61429e565b5b92915050565b7f50726f6a656374206475726174696f6e206e6f74207265616368656400000000600082015250565b60006144d7601c836137ed565b91506144e2826144a1565b602082019050919050565b60006020820190508181036000830152614506816144ca565b9050919050565b60006060820190506145226000830186613929565b61452f6020830185613baf565b61453c6040830184613929565b949350505050565b7f496e76616c696420726563697069656e74000000000000000000000000000000600082015250565b600061457a6011836137ed565b915061458582614544565b602082019050919050565b600060208201905081810360008301526145a98161456d565b9050919050565b7f43616e6e6f74207472616e736665722073686172657320746f20796f7572736560008201527f6c66000000000000000000000000000000000000000000000000000000000000602082015250565b600061460c6022836137ed565b9150614617826145b0565b604082019050919050565b6000602082019050818103600083015261463b816145ff565b9050919050565b7f416d6f756e74206d7573742062652067726561746572207468616e2030000000600082015250565b6000614678601d836137ed565b915061468382614642565b602082019050919050565b600060208201905081810360008301526146a78161466b565b9050919050565b7f496e73756666696369656e742073686172657300000000000000000000000000600082015250565b60006146e46013836137ed565b91506146ef826146ae565b602082019050919050565b60006020820190508181036000830152614713816146d7565b9050919050565b7f46756e64696e6720676f616c206d75737420626520677265617465722074686160008201527f6e20300000000000000000000000000000000000000000000000000000000000602082015250565b60006147766023836137ed565b91506147818261471a565b604082019050919050565b600060208201905081810360008301526147a581614769565b9050919050565b7f496e76616c6964206475726174696f6e00000000000000000000000000000000600082015250565b60006147e26010836137ed565b91506147ed826147ac565b602082019050919050565b60006020820190508181036000830152614811816147d5565b9050919050565b7f496e76616c6964207469746c65206c656e677468000000000000000000000000600082015250565b600061484e6014836137ed565b915061485982614818565b602082019050919050565b6000602082019050818103600083015261487d81614841565b9050919050565b7f496e76616c6964206465736372697074696f6e206c656e677468000000000000600082015250565b60006148ba601a836137ed565b91506148c582614884565b602082019050919050565b600060208201905081810360008301526148e9816148ad565b9050919050565b7f436f70797269676874205552492063616e6e6f7420626520656d707479000000600082015250565b6000614926601d836137ed565b9150614931826148f0565b602082019050919050565b6000602082019050818103600083015261495581614919565b9050919050565b7f546f6b656e205552492063616e6e6f7420626520656d70747900000000000000600082015250565b60006149926019836137ed565b915061499d8261495c565b602082019050919050565b600060208201905081810360008301526149c181614985565b9050919050565b600082905092915050565b60008190508160005260206000209050919050565b60006020601f8301049050919050565b600082821b905092915050565b600060088302614a357fffffffffffffffffffffffffffffffffffffffffffffffffffffffffffffffff826149f8565b614a3f86836149f8565b95508019841693508086168417925050509392505050565b6000614a72614a6d614a6884613894565b614195565b613894565b9050919050565b6000819050919050565b614a8c83614a57565b614aa0614a9882614a79565b848454614a05565b825550505050565b600090565b614ab5614aa8565b614ac0818484614a83565b505050565b5b81811015614ae457614ad9600082614aad565b600181019050614ac6565b5050565b601f821115614b2957614afa816149d3565b614b03846149e8565b81016020851015614b12578190505b614b26614b1e856149e8565b830182614ac5565b50505b505050565b600082821c905092915050565b6000614b4c60001984600802614b2e565b1980831691505092915050565b6000614b658383614b3b565b9150826002028217905092915050565b614b7f83836149c8565b67ffffffffffffffff811115614b9857614b97613f67565b5b614ba2825461423e565b614bad828285614ae8565b6000601f831160018114614bdc5760008415614bca578287013590505b614bd48582614b59565b865550614c3c565b601f198416614bea866149d3565b60005b82811015614c1257848901358255600182019150602085019450602081019050614bed565b86831015614c2f5784890135614c2b601f891682614b3b565b8355505b6001600288020188555050505b50505050505050565b6000614c5183856137ed565b9350614c5e838584614013565b614c6783613828565b840190509392505050565b60006040820190508181036000830152614c8d818688614c45565b90508181036020830152614ca2818486614c45565b905095945050505050565b60006020820190508181036000830152614cc8818486614c45565b90509392505050565b7f50726f6a656374206e6f7420636f6d706c657465640000000000000000000000600082015250565b6000614d076015836137ed565b9150614d1282614cd1565b602082019050919050565b60006020820190508181036000830152614d3681614cfa565b9050919050565b7f526566756e6420616c726561647920636c61696d656400000000000000000000600082015250565b6000614d736016836137ed565b9150614d7e82614d3d565b602082019050919050565b60006020820190508181036000830152614da281614d66565b9050919050565b7f4e6f2073686172657320746f20636c61696d20726566756e6420666f72000000600082015250565b6000614ddf601d836137ed565b9150614dea82614da9565b602082019050919050565b60006020820190508181036000830152614e0e81614dd2565b9050919050565b6000614e30614e2b614e26846139bf565b614195565b613894565b9050919050565b614e4081614e15565b82525050565b6000604082019050614e5b6000830185613929565b614e686020830184614e37565b9392505050565b600081519050614e7e81613ef6565b92915050565b600060208284031215614e9a57614e9961371d565b5b6000614ea884828501614e6f565b91505092915050565b7f526566756e64207472616e73666572206661696c656400000000000000000000600082015250565b6000614ee76016836137ed565b9150614ef282614eb1565b602082019050919050565b60006020820190508181036000830152614f1681614eda565b9050919050565b6000602082019050614f3260008301846139d7565b92915050565b6000614f43826139bf565b9150614f4e836139bf565b925082820190506bffffffffffffffffffffffff811115614f7257614f7161429e565b5b92915050565b7f46756e64696e6720676f616c2065786365656465640000000000000000000000600082015250565b6000614fae6015836137ed565b9150614fb982614f78565b602082019050919050565b60006020820190508181036000830152614fdd81614fa1565b9050919050565b7f50726f6a656374206e6f7420696e2066756e64696e6720706861736500000000600082015250565b600061501a601c836137ed565b915061502582614fe4565b602082019050919050565b600060208201905081810360008301526150498161500d565b9050919050565b7f50726f64756365722063616e6e6f7420696e7665737420696e2074686569722060008201527f6f776e2070726f6a656374000000000000000000000000000000000000000000602082015250565b60006150ac602b836137ed565b91506150b782615050565b604082019050919050565b600060208201905081810360008301526150db8161509f565b9050919050565b7f53686172652063616c63756c6174696f6e206f766572666c6f77000000000000600082015250565b6000615118601a836137ed565b9150615123826150e2565b602082019050919050565b600060208201905081810360008301526151478161510b565b9050919050565b7f50726f64756365722068617320696e73756666696369656e7420736861726573600082015250565b60006151846020836137ed565b915061518f8261514e565b602082019050919050565b600060208201905081810360008301526151b381615177565b9050919050565b60006060820190506151cf6000830186613929565b6151dc6020830185613929565b6151e96040830184614e37565b949350505050565b7f5472616e73666572206661696c65640000000000000000000000000000000000600082015250565b6000615227600f836137ed565b9150615232826151f1565b602082019050919050565b600060208201905081810360008301526152568161521a565b9050919050565b60006060820190506152726000830186613baf565b61527f6020830185613929565b61528c6040830184614e37565b949350505050565b60006040820190506152a960008301856139d7565b6152b66020830184613a13565b9392505050565b600081519050919050565b600082825260208201905092915050565b60006152e4826152bd565b6152ee81856152c8565b93506152fe8185602086016137fe565b61530781613828565b840191505092915050565b60006080820190506153276000830187613929565b6153346020830186613929565b6153416040830185613baf565b818103606083015261535381846152d9565b905095945050505050565b60008151905061536d81613753565b92915050565b6000602082840312156153895761538861371d565b5b60006153978482850161535e565b91505092915050565b60006040820190506153b56000830185613929565b6153c26020830184613baf565b939250505056fea26469706673582212207a87b7abaa7be447938751264c5ee97eb3ee750527fa749b11870ba897fa836e64736f6c634300081c0033",
  "linkReferences": {},
  "deployedLinkReferences": {}
}