{
  "_format": "hh-sol-artifact-1",
  "contractName": "Staking",
  "sourceName": "contracts/Staking.sol",
  "abi": [
    {
      "inputs": [
        {
          "internalType": "address",
          "name": "_serieCoinAddress",
          "type": "address"
        }
      ],
      "stateMutability": "nonpayable",
      "type": "constructor"
    },
    {
      "inputs": [
        {
          "internalType": "address",
          "name": "owner",
          "type": "address"
        }
      ],
      "name": "OwnableInvalidOwner",
      "type": "error"
    },
    {
      "inputs": [
        {
          "internalType": "address",
          "name": "account",
          "type": "address"
        }
      ],
      "name": "OwnableUnauthorizedAccount",
      "type": "error"
    },
    {
      "anonymous": false,
      "inputs": [
        {
          "indexed": true,
          "internalType": "address",
          "name": "previousOwner",
          "type": "address"
        },
        {
          "indexed": true,
          "internalType": "address",
          "name": "newOwner",
          "type": "address"
        }
      ],
      "name": "OwnershipTransferred",
      "type": "event"
    },
    {
      "anonymous": false,
      "inputs": [
        {
          "indexed": true,
          "internalType": "address",
          "name": "user",
          "type": "address"
        },
        {
          "indexed": true,
          "internalType": "uint256",
          "name": "projectId",
          "type": "uint256"
        },
        {
          "indexed": false,
          "internalType": "uint256",
          "name": "rewards",
          "type": "uint256"
        }
      ],
      "name": "RewardsClaimed",
      "type": "event"
    },
    {
      "anonymous": false,
      "inputs": [
        {
          "indexed": true,
          "internalType": "address",
          "name": "user",
          "type": "address"
        },
        {
          "indexed": true,
          "internalType": "uint256",
          "name": "projectId",
          "type": "uint256"
        },
        {
          "indexed": false,
          "internalType": "uint256",
          "name": "amount",
          "type": "uint256"
        }
      ],
      "name": "Staked",
      "type": "event"
    },
    {
      "anonymous": false,
      "inputs": [
        {
          "indexed": true,
          "internalType": "address",
          "name": "user",
          "type": "address"
        },
        {
          "indexed": true,
          "internalType": "uint256",
          "name": "projectId",
          "type": "uint256"
        },
        {
          "indexed": false,
          "internalType": "uint256",
          "name": "amount",
          "type": "uint256"
        },
        {
          "indexed": false,
          "internalType": "uint256",
          "name": "rewards",
          "type": "uint256"
        }
      ],
      "name": "Unstaked",
      "type": "event"
    },
    {
      "inputs": [],
      "name": "REWARD_PERIOD",
      "outputs": [
        {
          "internalType": "uint256",
          "name": "",
          "type": "uint256"
        }
      ],
      "stateMutability": "view",
      "type": "function"
    },
    {
      "inputs": [],
      "name": "REWARD_RATE",
      "outputs": [
        {
          "internalType": "uint256",
          "name": "",
          "type": "uint256"
        }
      ],
      "stateMutability": "view",
      "type": "function"
    },
    {
      "inputs": [
        {
          "internalType": "address",
          "name": "_user",
          "type": "address"
        },
        {
          "internalType": "uint256",
          "name": "_stakeIndex",
          "type": "uint256"
        }
      ],
      "name": "calculateRewards",
      "outputs": [
        {
          "internalType": "uint256",
          "name": "",
          "type": "uint256"
        }
      ],
      "stateMutability": "view",
      "type": "function"
    },
    {
      "inputs": [
        {
          "internalType": "uint256",
          "name": "_stakeIndex",
          "type": "uint256"
        }
      ],
      "name": "claimRewards",
      "outputs": [],
      "stateMutability": "nonpayable",
      "type": "function"
    },
    {
      "inputs": [
        {
          "internalType": "uint256",
          "name": "_projectId",
          "type": "uint256"
        }
      ],
      "name": "getProjectTotalStaked",
      "outputs": [
        {
          "internalType": "uint256",
          "name": "",
          "type": "uint256"
        }
      ],
      "stateMutability": "view",
      "type": "function"
    },
    {
      "inputs": [
        {
          "internalType": "uint256",
          "name": "_projectId",
          "type": "uint256"
        },
        {
          "internalType": "address",
          "name": "_user",
          "type": "address"
        }
      ],
      "name": "getStakeIndexForProject",
      "outputs": [
        {
          "internalType": "uint256",
          "name": "",
          "type": "uint256"
        }
      ],
      "stateMutability": "view",
      "type": "function"
    },
    {
      "inputs": [
        {
          "internalType": "address",
          "name": "_user",
          "type": "address"
        }
      ],
      "name": "getUserStakes",
      "outputs": [
        {
          "components": [
            {
              "internalType": "uint256",
              "name": "amount",
              "type": "uint256"
            },
            {
              "internalType": "uint256",
              "name": "startTime",
              "type": "uint256"
            },
            {
              "internalType": "uint256",
              "name": "projectId",
              "type": "uint256"
            },
            {
              "internalType": "bool",
              "name": "isActive",
              "type": "bool"
            },
            {
              "internalType": "bool",
              "name": "claimed",
              "type": "bool"
            }
          ],
          "internalType": "struct Staking.Stake[]",
          "name": "",
          "type": "tuple[]"
        }
      ],
      "stateMutability": "view",
      "type": "function"
    },
    {
      "inputs": [
        {
          "internalType": "uint256",
          "name": "_projectId",
          "type": "uint256"
        },
        {
          "internalType": "address",
          "name": "_investor",
          "type": "address"
        },
        {
          "internalType": "uint256",
          "name": "_amount",
          "type": "uint256"
        }
      ],
      "name": "onInvestment",
      "outputs": [],
      "stateMutability": "nonpayable",
      "type": "function"
    },
    {
      "inputs": [],
      "name": "owner",
      "outputs": [
        {
          "internalType": "address",
          "name": "",
          "type": "address"
        }
      ],
      "stateMutability": "view",
      "type": "function"
    },
    {
      "inputs": [
        {
          "internalType": "uint256",
          "name": "",
          "type": "uint256"
        }
      ],
      "name": "projectTotalStaked",
      "outputs": [
        {
          "internalType": "uint256",
          "name": "",
          "type": "uint256"
        }
      ],
      "stateMutability": "view",
      "type": "function"
    },
    {
      "inputs": [],
      "name": "renounceOwnership",
      "outputs": [],
      "stateMutability": "nonpayable",
      "type": "function"
    },
    {
      "inputs": [],
      "name": "serieCoin",
      "outputs": [
        {
          "internalType": "contract SerieCoin",
          "name": "",
          "type": "address"
        }
      ],
      "stateMutability": "view",
      "type": "function"
    },
    {
      "inputs": [],
      "name": "serieProject",
      "outputs": [
        {
          "internalType": "contract SerieProjectNFT",
          "name": "",
          "type": "address"
        }
      ],
      "stateMutability": "view",
      "type": "function"
    },
    {
      "inputs": [
        {
          "internalType": "address",
          "name": "_serieProjectAddress",
          "type": "address"
        }
      ],
      "name": "setSerieProjectNFT",
      "outputs": [],
      "stateMutability": "nonpayable",
      "type": "function"
    },
    {
      "inputs": [
        {
          "internalType": "address",
          "name": "",
          "type": "address"
        },
        {
          "internalType": "uint256",
          "name": "",
          "type": "uint256"
        }
      ],
      "name": "stakes",
      "outputs": [
        {
          "internalType": "uint256",
          "name": "amount",
          "type": "uint256"
        },
        {
          "internalType": "uint256",
          "name": "startTime",
          "type": "uint256"
        },
        {
          "internalType": "uint256",
          "name": "projectId",
          "type": "uint256"
        },
        {
          "internalType": "bool",
          "name": "isActive",
          "type": "bool"
        },
        {
          "internalType": "bool",
          "name": "claimed",
          "type": "bool"
        }
      ],
      "stateMutability": "view",
      "type": "function"
    },
    {
      "inputs": [
        {
          "internalType": "address",
          "name": "newOwner",
          "type": "address"
        }
      ],
      "name": "transferOwnership",
      "outputs": [],
      "stateMutability": "nonpayable",
      "type": "function"
    },
    {
      "inputs": [
        {
          "internalType": "uint256",
          "name": "_stakeIndex",
          "type": "uint256"
        }
      ],
      "name": "unstakeAndClaim",
      "outputs": [],
      "stateMutability": "nonpayable",
      "type": "function"
    }
  ],
  "bytecode": "0x608060405234801561001057600080fd5b5060405161242f38038061242f83398181016040528101906100329190610292565b33600073ffffffffffffffffffffffffffffffffffffffff168173ffffffffffffffffffffffffffffffffffffffff16036100a55760006040517f1e4fbdf700000000000000000000000000000000000000000000000000000000815260040161009c91906102ce565b60405180910390fd5b6100b48161016b60201b60201c565b50600073ffffffffffffffffffffffffffffffffffffffff168173ffffffffffffffffffffffffffffffffffffffff1603610124576040517f08c379a000000000000000000000000000000000000000000000000000000000815260040161011b90610346565b60405180910390fd5b80600260006101000a81548173ffffffffffffffffffffffffffffffffffffffff021916908373ffffffffffffffffffffffffffffffffffffffff16021790555050610366565b60008060009054906101000a900473ffffffffffffffffffffffffffffffffffffffff169050816000806101000a81548173ffffffffffffffffffffffffffffffffffffffff021916908373ffffffffffffffffffffffffffffffffffffffff1602179055508173ffffffffffffffffffffffffffffffffffffffff168173ffffffffffffffffffffffffffffffffffffffff167f8be0079c531659141344cd1fd0a4f28419497f9722a3daafe3b4186f6b6457e060405160405180910390a35050565b600080fd5b600073ffffffffffffffffffffffffffffffffffffffff82169050919050565b600061025f82610234565b9050919050565b61026f81610254565b811461027a57600080fd5b50565b60008151905061028c81610266565b92915050565b6000602082840312156102a8576102a761022f565b5b60006102b68482850161027d565b91505092915050565b6102c881610254565b82525050565b60006020820190506102e360008301846102bf565b92915050565b600082825260208201905092915050565b7f496e76616c6964205365726965436f696e206164647265737300000000000000600082015250565b60006103306019836102e9565b915061033b826102fa565b602082019050919050565b6000602082019050818103600083015261035f81610323565b9050919050565b6120ba806103756000396000f3fe608060405234801561001057600080fd5b506004361061010b5760003560e01c8063715018a6116100a2578063a8b2c15811610071578063a8b2c15814610296578063beb8314c146102b4578063e0a49aa8146102e4578063f2fde38b14610314578063f68f5805146103305761010b565b8063715018a6146102225780637668ffe21461022c578063842e2981146102485780638da5cb5b146102785761010b565b80634d87fab0116100de5780634d87fab014610184578063560118dc146101b4578063584b62a1146101d05780635997bb37146102045761010b565b80630962ef79146101105780630a171df81461012c5780632cafe61f1461014a5780634383d9ef14610166575b600080fd5b61012a60048036038101906101259190611527565b610360565b005b610134610710565b6040516101419190611563565b60405180910390f35b610164600480360381019061015f91906115dc565b610718565b005b61016e610864565b60405161017b9190611668565b60405180910390f35b61019e60048036038101906101999190611683565b61088a565b6040516101ab9190611563565b60405180910390f35b6101ce60048036038101906101c99190611527565b610986565b005b6101ea60048036038101906101e591906116c3565b610dac565b6040516101fb95949392919061171e565b60405180910390f35b61020c610e19565b6040516102199190611563565b60405180910390f35b61022a610e1e565b005b61024660048036038101906102419190611771565b610e32565b005b610262600480360381019061025d91906115dc565b61103b565b60405161026f91906118f9565b60405180910390f35b61028061112d565b60405161028d919061192a565b60405180910390f35b61029e611156565b6040516102ab9190611966565b60405180910390f35b6102ce60048036038101906102c991906116c3565b61117c565b6040516102db9190611563565b60405180910390f35b6102fe60048036038101906102f99190611527565b6112de565b60405161030b9190611563565b60405180910390f35b61032e600480360381019061032991906115dc565b6112f6565b005b61034a60048036038101906103459190611527565b61137c565b6040516103579190611563565b60405180910390f35b6000600360003373ffffffffffffffffffffffffffffffffffffffff1673ffffffffffffffffffffffffffffffffffffffff16815260200190815260200160002082815481106103b3576103b2611981565b5b906000526020600020906004020190508060030160009054906101000a900460ff16610414576040517f08c379a000000000000000000000000000000000000000000000000000000000815260040161040b90611a0d565b60405180910390fd5b8060030160019054906101000a900460ff1615610466576040517f08c379a000000000000000000000000000000000000000000000000000000000815260040161045d90611a79565b60405180910390fd5b60028081111561047957610478611a99565b5b600160009054906101000a900473ffffffffffffffffffffffffffffffffffffffff1673ffffffffffffffffffffffffffffffffffffffff16639675c00983600201546040518263ffffffff1660e01b81526004016104d89190611563565b602060405180830381865afa1580156104f5573d6000803e3d6000fd5b505050506040513d601f19601f820116820180604052508101906105199190611aed565b600281111561052b5761052a611a99565b5b1461056b576040517f08c379a000000000000000000000000000000000000000000000000000000000815260040161056290611b66565b60405180910390fd5b6000610577338461117c565b9050600081116105bc576040517f08c379a00000000000000000000000000000000000000000000000000000000081526004016105b390611bd2565b60405180910390fd5b60018260030160016101000a81548160ff021916908315150217905550600260009054906101000a900473ffffffffffffffffffffffffffffffffffffffff1673ffffffffffffffffffffffffffffffffffffffff1663a9059cbb33836040518363ffffffff1660e01b8152600401610636929190611bf2565b6020604051808303816000875af1158015610655573d6000803e3d6000fd5b505050506040513d601f19601f820116820180604052508101906106799190611c47565b6106b8576040517f08c379a00000000000000000000000000000000000000000000000000000000081526004016106af90611cc0565b60405180910390fd5b81600201543373ffffffffffffffffffffffffffffffffffffffff167fdacbdde355ba930696a362ea6738feb9f8bd52dfb3d81947558fd3217e23e325836040516107039190611563565b60405180910390a3505050565b6301e1338081565b610720611399565b600073ffffffffffffffffffffffffffffffffffffffff168173ffffffffffffffffffffffffffffffffffffffff160361078f576040517f08c379a000000000000000000000000000000000000000000000000000000000815260040161078690611d2c565b60405180910390fd5b600073ffffffffffffffffffffffffffffffffffffffff16600160009054906101000a900473ffffffffffffffffffffffffffffffffffffffff1673ffffffffffffffffffffffffffffffffffffffff1614610820576040517f08c379a000000000000000000000000000000000000000000000000000000000815260040161081790611d98565b60405180910390fd5b80600160006101000a81548173ffffffffffffffffffffffffffffffffffffffff021916908373ffffffffffffffffffffffffffffffffffffffff16021790555050565b600160009054906101000a900473ffffffffffffffffffffffffffffffffffffffff1681565b600080600360008473ffffffffffffffffffffffffffffffffffffffff1673ffffffffffffffffffffffffffffffffffffffff168152602001908152602001600020905060005b818054905081101561095a57848282815481106108f1576108f0611981565b5b90600052602060002090600402016002015414801561093e575081818154811061091e5761091d611981565b5b906000526020600020906004020160030160009054906101000a900460ff165b1561094d578092505050610980565b80806001019150506108d1565b507fffffffffffffffffffffffffffffffffffffffffffffffffffffffffffffffff9150505b92915050565b600360003373ffffffffffffffffffffffffffffffffffffffff1673ffffffffffffffffffffffffffffffffffffffff168152602001908152602001600020805490508110610a0a576040517f08c379a0000000000000000000000000000000000000000000000000000000008152600401610a0190611e04565b60405180910390fd5b6000600360003373ffffffffffffffffffffffffffffffffffffffff1673ffffffffffffffffffffffffffffffffffffffff1681526020019081526020016000208281548110610a5d57610a5c611981565b5b906000526020600020906004020190508060030160009054906101000a900460ff16610abe576040517f08c379a0000000000000000000000000000000000000000000000000000000008152600401610ab590611a0d565b60405180910390fd5b600280811115610ad157610ad0611a99565b5b600160009054906101000a900473ffffffffffffffffffffffffffffffffffffffff1673ffffffffffffffffffffffffffffffffffffffff16639675c00983600201546040518263ffffffff1660e01b8152600401610b309190611563565b602060405180830381865afa158015610b4d573d6000803e3d6000fd5b505050506040513d601f19601f82011682018060405250810190610b719190611aed565b6002811115610b8357610b82611a99565b5b14610bc3576040517f08c379a0000000000000000000000000000000000000000000000000000000008152600401610bba90611b66565b60405180910390fd5b60008160030160019054906101000a900460ff16610be857610be5338461117c565b90505b60008260030160006101000a81548160ff02191690831515021790555060018260030160016101000a81548160ff021916908315150217905550816000015460046000846002015481526020019081526020016000206000828254610c4d9190611e53565b925050819055506000818360000154610c669190611e87565b90506000600260009054906101000a900473ffffffffffffffffffffffffffffffffffffffff1673ffffffffffffffffffffffffffffffffffffffff1663a9059cbb33846040518363ffffffff1660e01b8152600401610cc7929190611bf2565b6020604051808303816000875af1158015610ce6573d6000803e3d6000fd5b505050506040513d601f19601f82011682018060405250810190610d0a9190611c47565b905080610d4c576040517f08c379a0000000000000000000000000000000000000000000000000000000008152600401610d4390611f07565b60405180910390fd5b83600201543373ffffffffffffffffffffffffffffffffffffffff167f204fccf0d92ed8d48f204adb39b2e81e92bad0dedb93f5716ca9478cfb57de00866000015486604051610d9d929190611f27565b60405180910390a35050505050565b60036020528160005260406000208181548110610dc857600080fd5b9060005260206000209060040201600091509150508060000154908060010154908060020154908060030160009054906101000a900460ff16908060030160019054906101000a900460ff16905085565b600581565b610e26611399565b610e306000611420565b565b600160009054906101000a900473ffffffffffffffffffffffffffffffffffffffff1673ffffffffffffffffffffffffffffffffffffffff163373ffffffffffffffffffffffffffffffffffffffff1614610ec2576040517f08c379a0000000000000000000000000000000000000000000000000000000008152600401610eb990611fc2565b60405180910390fd5b60006040518060a00160405280838152602001428152602001858152602001600115158152602001600015158152509050600360008473ffffffffffffffffffffffffffffffffffffffff1673ffffffffffffffffffffffffffffffffffffffff16815260200190815260200160002081908060018154018082558091505060019003906000526020600020906004020160009091909190915060008201518160000155602082015181600101556040820151816002015560608201518160030160006101000a81548160ff02191690831515021790555060808201518160030160016101000a81548160ff021916908315150217905550505081600460008681526020019081526020016000206000828254610fdf9190611e87565b92505081905550838373ffffffffffffffffffffffffffffffffffffffff167f1449c6dd7851abc30abf37f57715f492010519147cc2652fbc38202c18a6ee908460405161102d9190611563565b60405180910390a350505050565b6060600360008373ffffffffffffffffffffffffffffffffffffffff1673ffffffffffffffffffffffffffffffffffffffff168152602001908152602001600020805480602002602001604051908101604052809291908181526020016000905b8282101561112257838290600052602060002090600402016040518060a00160405290816000820154815260200160018201548152602001600282015481526020016003820160009054906101000a900460ff161515151581526020016003820160019054906101000a900460ff1615151515815250508152602001906001019061109c565b505050509050919050565b60008060009054906101000a900473ffffffffffffffffffffffffffffffffffffffff16905090565b600260009054906101000a900473ffffffffffffffffffffffffffffffffffffffff1681565b600080600360008573ffffffffffffffffffffffffffffffffffffffff1673ffffffffffffffffffffffffffffffffffffffff16815260200190815260200160002083815481106111d0576111cf611981565b5b906000526020600020906004020190508060030160009054906101000a900460ff16611231576040517f08c379a000000000000000000000000000000000000000000000000000000000815260040161122890611a0d565b60405180910390fd5b8060030160019054906101000a900460ff1615611283576040517f08c379a000000000000000000000000000000000000000000000000000000000815260040161127a90611a79565b60405180910390fd5b60008160010154426112959190611e53565b905060006301e133808260056112ab9190611fe2565b6112b59190612053565b905060648184600001546112c99190611fe2565b6112d39190612053565b935050505092915050565b60046020528060005260406000206000915090505481565b6112fe611399565b600073ffffffffffffffffffffffffffffffffffffffff168173ffffffffffffffffffffffffffffffffffffffff16036113705760006040517f1e4fbdf7000000000000000000000000000000000000000000000000000000008152600401611367919061192a565b60405180910390fd5b61137981611420565b50565b600060046000838152602001908152602001600020549050919050565b6113a16114e4565b73ffffffffffffffffffffffffffffffffffffffff166113bf61112d565b73ffffffffffffffffffffffffffffffffffffffff161461141e576113e26114e4565b6040517f118cdaa7000000000000000000000000000000000000000000000000000000008152600401611415919061192a565b60405180910390fd5b565b60008060009054906101000a900473ffffffffffffffffffffffffffffffffffffffff169050816000806101000a81548173ffffffffffffffffffffffffffffffffffffffff021916908373ffffffffffffffffffffffffffffffffffffffff1602179055508173ffffffffffffffffffffffffffffffffffffffff168173ffffffffffffffffffffffffffffffffffffffff167f8be0079c531659141344cd1fd0a4f28419497f9722a3daafe3b4186f6b6457e060405160405180910390a35050565b600033905090565b600080fd5b6000819050919050565b611504816114f1565b811461150f57600080fd5b50565b600081359050611521816114fb565b92915050565b60006020828403121561153d5761153c6114ec565b5b600061154b84828501611512565b91505092915050565b61155d816114f1565b82525050565b60006020820190506115786000830184611554565b92915050565b600073ffffffffffffffffffffffffffffffffffffffff82169050919050565b60006115a98261157e565b9050919050565b6115b98161159e565b81146115c457600080fd5b50565b6000813590506115d6816115b0565b92915050565b6000602082840312156115f2576115f16114ec565b5b6000611600848285016115c7565b91505092915050565b6000819050919050565b600061162e6116296116248461157e565b611609565b61157e565b9050919050565b600061164082611613565b9050919050565b600061165282611635565b9050919050565b61166281611647565b82525050565b600060208201905061167d6000830184611659565b92915050565b6000806040838503121561169a576116996114ec565b5b60006116a885828601611512565b92505060206116b9858286016115c7565b9150509250929050565b600080604083850312156116da576116d96114ec565b5b60006116e8858286016115c7565b92505060206116f985828601611512565b9150509250929050565b60008115159050919050565b61171881611703565b82525050565b600060a0820190506117336000830188611554565b6117406020830187611554565b61174d6040830186611554565b61175a606083018561170f565b611767608083018461170f565b9695505050505050565b60008060006060848603121561178a576117896114ec565b5b600061179886828701611512565b93505060206117a9868287016115c7565b92505060406117ba86828701611512565b9150509250925092565b600081519050919050565b600082825260208201905092915050565b6000819050602082019050919050565b6117f9816114f1565b82525050565b61180881611703565b82525050565b60a08201600082015161182460008501826117f0565b50602082015161183760208501826117f0565b50604082015161184a60408501826117f0565b50606082015161185d60608501826117ff565b50608082015161187060808501826117ff565b50505050565b6000611882838361180e565b60a08301905092915050565b6000602082019050919050565b60006118a6826117c4565b6118b081856117cf565b93506118bb836117e0565b8060005b838110156118ec5781516118d38882611876565b97506118de8361188e565b9250506001810190506118bf565b5085935050505092915050565b60006020820190508181036000830152611913818461189b565b905092915050565b6119248161159e565b82525050565b600060208201905061193f600083018461191b565b92915050565b600061195082611635565b9050919050565b61196081611945565b82525050565b600060208201905061197b6000830184611957565b92915050565b7f4e487b7100000000000000000000000000000000000000000000000000000000600052603260045260246000fd5b600082825260208201905092915050565b7f5374616b65206973206e6f742061637469766500000000000000000000000000600082015250565b60006119f76013836119b0565b9150611a02826119c1565b602082019050919050565b60006020820190508181036000830152611a26816119ea565b9050919050565b7f5265776172647320616c726561647920636c61696d6564000000000000000000600082015250565b6000611a636017836119b0565b9150611a6e82611a2d565b602082019050919050565b60006020820190508181036000830152611a9281611a56565b9050919050565b7f4e487b7100000000000000000000000000000000000000000000000000000000600052602160045260246000fd5b60038110611ad557600080fd5b50565b600081519050611ae781611ac8565b92915050565b600060208284031215611b0357611b026114ec565b5b6000611b1184828501611ad8565b91505092915050565b7f50726f6a656374206e6f7420636f6d706c657465640000000000000000000000600082015250565b6000611b506015836119b0565b9150611b5b82611b1a565b602082019050919050565b60006020820190508181036000830152611b7f81611b43565b9050919050565b7f4e6f207265776172647320746f20636c61696d00000000000000000000000000600082015250565b6000611bbc6013836119b0565b9150611bc782611b86565b602082019050919050565b60006020820190508181036000830152611beb81611baf565b9050919050565b6000604082019050611c07600083018561191b565b611c146020830184611554565b9392505050565b611c2481611703565b8114611c2f57600080fd5b50565b600081519050611c4181611c1b565b92915050565b600060208284031215611c5d57611c5c6114ec565b5b6000611c6b84828501611c32565b91505092915050565b7f526577617264207472616e73666572206661696c656400000000000000000000600082015250565b6000611caa6016836119b0565b9150611cb582611c74565b602082019050919050565b60006020820190508181036000830152611cd981611c9d565b9050919050565b7f496e76616c696420536572696550726f6a6563744e4654206164647265737300600082015250565b6000611d16601f836119b0565b9150611d2182611ce0565b602082019050919050565b60006020820190508181036000830152611d4581611d09565b9050919050565b7f536572696550726f6a6563744e465420616c7265616479207365740000000000600082015250565b6000611d82601b836119b0565b9150611d8d82611d4c565b602082019050919050565b60006020820190508181036000830152611db181611d75565b9050919050565b7f496e76616c6964207374616b6520696e64657800000000000000000000000000600082015250565b6000611dee6013836119b0565b9150611df982611db8565b602082019050919050565b60006020820190508181036000830152611e1d81611de1565b9050919050565b7f4e487b7100000000000000000000000000000000000000000000000000000000600052601160045260246000fd5b6000611e5e826114f1565b9150611e69836114f1565b9250828203905081811115611e8157611e80611e24565b5b92915050565b6000611e92826114f1565b9150611e9d836114f1565b9250828201905080821115611eb557611eb4611e24565b5b92915050565b7f5472616e73666572206661696c65640000000000000000000000000000000000600082015250565b6000611ef1600f836119b0565b9150611efc82611ebb565b602082019050919050565b60006020820190508181036000830152611f2081611ee4565b9050919050565b6000604082019050611f3c6000830185611554565b611f496020830184611554565b9392505050565b7f4f6e6c7920536572696550726f6a6563744e46542063616e2063616c6c20746860008201527f69732066756e6374696f6e000000000000000000000000000000000000000000602082015250565b6000611fac602b836119b0565b9150611fb782611f50565b604082019050919050565b60006020820190508181036000830152611fdb81611f9f565b9050919050565b6000611fed826114f1565b9150611ff8836114f1565b9250828202612006816114f1565b9150828204841483151761201d5761201c611e24565b5b5092915050565b7f4e487b7100000000000000000000000000000000000000000000000000000000600052601260045260246000fd5b600061205e826114f1565b9150612069836114f1565b92508261207957612078612024565b5b82820490509291505056fea26469706673582212200d038b8f062bd746a304fcb6ce5b115d220fdfc715106b19787f8b2b0ba33b6b64736f6c634300081c0033",
  "linkReferences": {},
  "deployedLinkReferences": {}
}