{
  "_format": "hh-sol-artifact-1",
  "contractName": "SerieProjectNFT",
  "sourceName": "contracts/SerieProjectNFT.sol",
  "abi": [
    {
      "inputs": [
        {
          "internalType": "address",
          "name": "_serieCoinAddress",
          "type": "address"
        }
      ],
      "stateMutability": "nonpayable",
      "type": "constructor"
    },
    {
      "inputs": [
        {
          "internalType": "address",
          "name": "sender",
          "type": "address"
        },
        {
          "internalType": "uint256",
          "name": "tokenId",
          "type": "uint256"
        },
        {
          "internalType": "address",
          "name": "owner",
          "type": "address"
        }
      ],
      "name": "ERC721IncorrectOwner",
      "type": "error"
    },
    {
      "inputs": [
        {
          "internalType": "address",
          "name": "operator",
          "type": "address"
        },
        {
          "internalType": "uint256",
          "name": "tokenId",
          "type": "uint256"
        }
      ],
      "name": "ERC721InsufficientApproval",
      "type": "error"
    },
    {
      "inputs": [
        {
          "internalType": "address",
          "name": "approver",
          "type": "address"
        }
      ],
      "name": "ERC721InvalidApprover",
      "type": "error"
    },
    {
      "inputs": [
        {
          "internalType": "address",
          "name": "operator",
          "type": "address"
        }
      ],
      "name": "ERC721InvalidOperator",
      "type": "error"
    },
    {
      "inputs": [
        {
          "internalType": "address",
          "name": "owner",
          "type": "address"
        }
      ],
      "name": "ERC721InvalidOwner",
      "type": "error"
    },
    {
      "inputs": [
        {
          "internalType": "address",
          "name": "receiver",
          "type": "address"
        }
      ],
      "name": "ERC721InvalidReceiver",
      "type": "error"
    },
    {
      "inputs": [
        {
          "internalType": "address",
          "name": "sender",
          "type": "address"
        }
      ],
      "name": "ERC721InvalidSender",
      "type": "error"
    },
    {
      "inputs": [
        {
          "internalType": "uint256",
          "name": "tokenId",
          "type": "uint256"
        }
      ],
      "name": "ERC721NonexistentToken",
      "type": "error"
    },
    {
      "inputs": [
        {
          "internalType": "address",
          "name": "owner",
          "type": "address"
        }
      ],
      "name": "OwnableInvalidOwner",
      "type": "error"
    },
    {
      "inputs": [
        {
          "internalType": "address",
          "name": "account",
          "type": "address"
        }
      ],
      "name": "OwnableUnauthorizedAccount",
      "type": "error"
    },
    {
      "inputs": [],
      "name": "ProjectDoesNotExist",
      "type": "error"
    },
    {
      "anonymous": false,
      "inputs": [
        {
          "indexed": true,
          "internalType": "address",
          "name": "owner",
          "type": "address"
        },
        {
          "indexed": true,
          "internalType": "address",
          "name": "approved",
          "type": "address"
        },
        {
          "indexed": true,
          "internalType": "uint256",
          "name": "tokenId",
          "type": "uint256"
        }
      ],
      "name": "Approval",
      "type": "event"
    },
    {
      "anonymous": false,
      "inputs": [
        {
          "indexed": true,
          "internalType": "address",
          "name": "owner",
          "type": "address"
        },
        {
          "indexed": true,
          "internalType": "address",
          "name": "operator",
          "type": "address"
        },
        {
          "indexed": false,
          "internalType": "bool",
          "name": "approved",
          "type": "bool"
        }
      ],
      "name": "ApprovalForAll",
      "type": "event"
    },
    {
      "anonymous": false,
      "inputs": [
        {
          "indexed": true,
          "internalType": "uint256",
          "name": "projectId",
          "type": "uint256"
        },
        {
          "indexed": false,
          "internalType": "string",
          "name": "copyrightURI",
          "type": "string"
        }
      ],
      "name": "CopyrightRegistered",
      "type": "event"
    },
    {
      "anonymous": false,
      "inputs": [
        {
          "indexed": true,
          "internalType": "address",
          "name": "previousOwner",
          "type": "address"
        },
        {
          "indexed": true,
          "internalType": "address",
          "name": "newOwner",
          "type": "address"
        }
      ],
      "name": "OwnershipTransferred",
      "type": "event"
    },
    {
      "anonymous": false,
      "inputs": [
        {
          "indexed": true,
          "internalType": "uint256",
          "name": "projectId",
          "type": "uint256"
        },
        {
          "indexed": false,
          "internalType": "string",
          "name": "title",
          "type": "string"
        },
        {
          "indexed": true,
          "internalType": "address",
          "name": "producer",
          "type": "address"
        },
        {
          "indexed": false,
          "internalType": "string",
          "name": "tokenURI",
          "type": "string"
        }
      ],
      "name": "ProjectCreated",
      "type": "event"
    },
    {
      "anonymous": false,
      "inputs": [
        {
          "indexed": true,
          "internalType": "uint256",
          "name": "projectId",
          "type": "uint256"
        },
        {
          "indexed": true,
          "internalType": "address",
          "name": "investor",
          "type": "address"
        },
        {
          "indexed": false,
          "internalType": "uint96",
          "name": "amount",
          "type": "uint96"
        },
        {
          "indexed": false,
          "internalType": "uint16",
          "name": "shares",
          "type": "uint16"
        }
      ],
      "name": "ProjectFunded",
      "type": "event"
    },
    {
      "anonymous": false,
      "inputs": [
        {
          "indexed": true,
          "internalType": "uint256",
          "name": "projectId",
          "type": "uint256"
        },
        {
          "indexed": false,
          "internalType": "enum SerieProjectNFT.ProjectStatus",
          "name": "newStatus",
          "type": "uint8"
        }
      ],
      "name": "ProjectStatusChanged",
      "type": "event"
    },
    {
      "anonymous": false,
      "inputs": [
        {
          "indexed": true,
          "internalType": "uint256",
          "name": "projectId",
          "type": "uint256"
        },
        {
          "indexed": true,
          "internalType": "address",
          "name": "investor",
          "type": "address"
        },
        {
          "indexed": false,
          "internalType": "uint96",
          "name": "amount",
          "type": "uint96"
        }
      ],
      "name": "RefundClaimed",
      "type": "event"
    },
    {
      "anonymous": false,
      "inputs": [
        {
          "indexed": true,
          "internalType": "uint256",
          "name": "projectId",
          "type": "uint256"
        },
        {
          "indexed": true,
          "internalType": "address",
          "name": "from",
          "type": "address"
        },
        {
          "indexed": true,
          "internalType": "address",
          "name": "to",
          "type": "address"
        },
        {
          "indexed": false,
          "internalType": "uint16",
          "name": "shares",
          "type": "uint16"
        }
      ],
      "name": "SharesTransferred",
      "type": "event"
    },
    {
      "anonymous": false,
      "inputs": [
        {
          "indexed": true,
          "internalType": "address",
          "name": "from",
          "type": "address"
        },
        {
          "indexed": true,
          "internalType": "address",
          "name": "to",
          "type": "address"
        },
        {
          "indexed": true,
          "internalType": "uint256",
          "name": "tokenId",
          "type": "uint256"
        }
      ],
      "name": "Transfer",
      "type": "event"
    },
    {
      "inputs": [
        {
          "internalType": "address",
          "name": "to",
          "type": "address"
        },
        {
          "internalType": "uint256",
          "name": "tokenId",
          "type": "uint256"
        }
      ],
      "name": "approve",
      "outputs": [],
      "stateMutability": "nonpayable",
      "type": "function"
    },
    {
      "inputs": [
        {
          "internalType": "address",
          "name": "owner",
          "type": "address"
        }
      ],
      "name": "balanceOf",
      "outputs": [
        {
          "internalType": "uint256",
          "name": "",
          "type": "uint256"
        }
      ],
      "stateMutability": "view",
      "type": "function"
    },
    {
      "inputs": [
        {
          "internalType": "uint256",
          "name": "_projectId",
          "type": "uint256"
        }
      ],
      "name": "claimRefund",
      "outputs": [],
      "stateMutability": "nonpayable",
      "type": "function"
    },
    {
      "inputs": [
        {
          "internalType": "uint256",
          "name": "_projectId",
          "type": "uint256"
        }
      ],
      "name": "completeProject",
      "outputs": [],
      "stateMutability": "nonpayable",
      "type": "function"
    },
    {
      "inputs": [
        {
          "internalType": "string",
          "name": "_title",
          "type": "string"
        },
        {
          "internalType": "string",
          "name": "_description",
          "type": "string"
        },
        {
          "internalType": "uint96",
          "name": "_fundingGoal",
          "type": "uint96"
        },
        {
          "internalType": "uint32",
          "name": "_duration",
          "type": "uint32"
        },
        {
          "internalType": "string",
          "name": "_copyrightURI",
          "type": "string"
        },
        {
          "internalType": "string",
          "name": "_tokenURI",
          "type": "string"
        }
      ],
      "name": "createProject",
      "outputs": [],
      "stateMutability": "nonpayable",
      "type": "function"
    },
    {
      "inputs": [
        {
          "internalType": "uint256",
          "name": "_projectId",
          "type": "uint256"
        }
      ],
      "name": "forceCompleteProject",
      "outputs": [],
      "stateMutability": "nonpayable",
      "type": "function"
    },
    {
      "inputs": [
        {
          "internalType": "uint256",
          "name": "tokenId",
          "type": "uint256"
        }
      ],
      "name": "getApproved",
      "outputs": [
        {
          "internalType": "address",
          "name": "",
          "type": "address"
        }
      ],
      "stateMutability": "view",
      "type": "function"
    },
    {
      "inputs": [
        {
          "internalType": "uint256",
          "name": "_projectId",
          "type": "uint256"
        }
      ],
      "name": "getCopyrightURI",
      "outputs": [
        {
          "internalType": "string",
          "name": "",
          "type": "string"
        }
      ],
      "stateMutability": "view",
      "type": "function"
    },
    {
      "inputs": [
        {
          "internalType": "uint256",
          "name": "_projectId",
          "type": "uint256"
        }
      ],
      "name": "getProjectStatus",
      "outputs": [
        {
          "internalType": "enum SerieProjectNFT.ProjectStatus",
          "name": "",
          "type": "uint8"
        }
      ],
      "stateMutability": "view",
      "type": "function"
    },
    {
      "inputs": [
        {
          "internalType": "uint256",
          "name": "_projectId",
          "type": "uint256"
        },
        {
          "internalType": "address",
          "name": "_investor",
          "type": "address"
        }
      ],
      "name": "getSharePercentage",
      "outputs": [
        {
          "internalType": "uint256",
          "name": "",
          "type": "uint256"
        }
      ],
      "stateMutability": "view",
      "type": "function"
    },
    {
      "inputs": [
        {
          "internalType": "uint256",
          "name": "_projectId",
          "type": "uint256"
        },
        {
          "internalType": "uint96",
          "name": "_amount",
          "type": "uint96"
        }
      ],
      "name": "investInProject",
      "outputs": [],
      "stateMutability": "nonpayable",
      "type": "function"
    },
    {
      "inputs": [
        {
          "internalType": "address",
          "name": "owner",
          "type": "address"
        },
        {
          "internalType": "address",
          "name": "operator",
          "type": "address"
        }
      ],
      "name": "isApprovedForAll",
      "outputs": [
        {
          "internalType": "bool",
          "name": "",
          "type": "bool"
        }
      ],
      "stateMutability": "view",
      "type": "function"
    },
    {
      "inputs": [],
      "name": "name",
      "outputs": [
        {
          "internalType": "string",
          "name": "",
          "type": "string"
        }
      ],
      "stateMutability": "view",
      "type": "function"
    },
    {
      "inputs": [],
      "name": "owner",
      "outputs": [
        {
          "internalType": "address",
          "name": "",
          "type": "address"
        }
      ],
      "stateMutability": "view",
      "type": "function"
    },
    {
      "inputs": [
        {
          "internalType": "uint256",
          "name": "tokenId",
          "type": "uint256"
        }
      ],
      "name": "ownerOf",
      "outputs": [
        {
          "internalType": "address",
          "name": "",
          "type": "address"
        }
      ],
      "stateMutability": "view",
      "type": "function"
    },
    {
      "inputs": [],
      "name": "projectCount",
      "outputs": [
        {
          "internalType": "uint32",
          "name": "",
          "type": "uint32"
        }
      ],
      "stateMutability": "view",
      "type": "function"
    },
    {
      "inputs": [
        {
          "internalType": "uint256",
          "name": "",
          "type": "uint256"
        },
        {
          "internalType": "address",
          "name": "",
          "type": "address"
        }
      ],
      "name": "projectShares",
      "outputs": [
        {
          "internalType": "uint16",
          "name": "",
          "type": "uint16"
        }
      ],
      "stateMutability": "view",
      "type": "function"
    },
    {
      "inputs": [
        {
          "internalType": "uint256",
          "name": "",
          "type": "uint256"
        }
      ],
      "name": "projects",
      "outputs": [
        {
          "internalType": "uint96",
          "name": "fundingGoal",
          "type": "uint96"
        },
        {
          "internalType": "uint96",
          "name": "currentFunding",
          "type": "uint96"
        },
        {
          "internalType": "uint32",
          "name": "duration",
          "type": "uint32"
        },
        {
          "internalType": "uint32",
          "name": "startTime",
          "type": "uint32"
        },
        {
          "internalType": "uint16",
          "name": "totalShares",
          "type": "uint16"
        },
        {
          "internalType": "bool",
          "name": "refundClaimed",
          "type": "bool"
        },
        {
          "internalType": "address",
          "name": "producer",
          "type": "address"
        },
        {
          "internalType": "enum SerieProjectNFT.ProjectStatus",
          "name": "status",
          "type": "uint8"
        },
        {
          "internalType": "string",
          "name": "title",
          "type": "string"
        },
        {
          "internalType": "string",
          "name": "description",
          "type": "string"
        },
        {
          "internalType": "string",
          "name": "copyrightURI",
          "type": "string"
        },
        {
          "internalType": "string",
          "name": "tokenURI",
          "type": "string"
        }
      ],
      "stateMutability": "view",
      "type": "function"
    },
    {
      "inputs": [],
      "name": "renounceOwnership",
      "outputs": [],
      "stateMutability": "nonpayable",
      "type": "function"
    },
    {
      "inputs": [
        {
          "internalType": "address",
          "name": "from",
          "type": "address"
        },
        {
          "internalType": "address",
          "name": "to",
          "type": "address"
        },
        {
          "internalType": "uint256",
          "name": "tokenId",
          "type": "uint256"
        }
      ],
      "name": "safeTransferFrom",
      "outputs": [],
      "stateMutability": "nonpayable",
      "type": "function"
    },
    {
      "inputs": [
        {
          "internalType": "address",
          "name": "from",
          "type": "address"
        },
        {
          "internalType": "address",
          "name": "to",
          "type": "address"
        },
        {
          "internalType": "uint256",
          "name": "tokenId",
          "type": "uint256"
        },
        {
          "internalType": "bytes",
          "name": "data",
          "type": "bytes"
        }
      ],
      "name": "safeTransferFrom",
      "outputs": [],
      "stateMutability": "nonpayable",
      "type": "function"
    },
    {
      "inputs": [
        {
          "internalType": "address",
          "name": "operator",
          "type": "address"
        },
        {
          "internalType": "bool",
          "name": "approved",
          "type": "bool"
        }
      ],
      "name": "setApprovalForAll",
      "outputs": [],
      "stateMutability": "nonpayable",
      "type": "function"
    },
    {
      "inputs": [
        {
          "internalType": "bytes4",
          "name": "interfaceId",
          "type": "bytes4"
        }
      ],
      "name": "supportsInterface",
      "outputs": [
        {
          "internalType": "bool",
          "name": "",
          "type": "bool"
        }
      ],
      "stateMutability": "view",
      "type": "function"
    },
    {
      "inputs": [],
      "name": "symbol",
      "outputs": [
        {
          "internalType": "string",
          "name": "",
          "type": "string"
        }
      ],
      "stateMutability": "view",
      "type": "function"
    },
    {
      "inputs": [
        {
          "internalType": "uint256",
          "name": "tokenId",
          "type": "uint256"
        }
      ],
      "name": "tokenURI",
      "outputs": [
        {
          "internalType": "string",
          "name": "",
          "type": "string"
        }
      ],
      "stateMutability": "view",
      "type": "function"
    },
    {
      "inputs": [
        {
          "internalType": "address",
          "name": "from",
          "type": "address"
        },
        {
          "internalType": "address",
          "name": "to",
          "type": "address"
        },
        {
          "internalType": "uint256",
          "name": "tokenId",
          "type": "uint256"
        }
      ],
      "name": "transferFrom",
      "outputs": [],
      "stateMutability": "nonpayable",
      "type": "function"
    },
    {
      "inputs": [
        {
          "internalType": "address",
          "name": "newOwner",
          "type": "address"
        }
      ],
      "name": "transferOwnership",
      "outputs": [],
      "stateMutability": "nonpayable",
      "type": "function"
    },
    {
      "inputs": [
        {
          "internalType": "uint256",
          "name": "_projectId",
          "type": "uint256"
        },
        {
          "internalType": "address",
          "name": "_to",
          "type": "address"
        },
        {
          "internalType": "uint16",
          "name": "_shares",
          "type": "uint16"
        }
      ],
      "name": "transferShares",
      "outputs": [],
      "stateMutability": "nonpayable",
      "type": "function"
    }
  ],
  "bytecode": "0x60a060405234801561001057600080fd5b5060405161588138038061588183398181016040528101906100329190610315565b336040518060400160405280600c81526020017f536572696550726f6a65637400000000000000000000000000000000000000008152506040518060400160405280600281526020017f535000000000000000000000000000000000000000000000000000000000000081525081600090816100ae9190610592565b5080600190816100be9190610592565b505050600073ffffffffffffffffffffffffffffffffffffffff168173ffffffffffffffffffffffffffffffffffffffff16036101335760006040517f1e4fbdf700000000000000000000000000000000000000000000000000000000815260040161012a9190610673565b60405180910390fd5b610142816101ec60201b60201c565b50600073ffffffffffffffffffffffffffffffffffffffff168173ffffffffffffffffffffffffffffffffffffffff16036101b2576040517f08c379a00000000000000000000000000000000000000000000000000000000081526004016101a9906106eb565b60405180910390fd5b8073ffffffffffffffffffffffffffffffffffffffff1660808173ffffffffffffffffffffffffffffffffffffffff16815250505061070b565b6000600660009054906101000a900473ffffffffffffffffffffffffffffffffffffffff16905081600660006101000a81548173ffffffffffffffffffffffffffffffffffffffff021916908373ffffffffffffffffffffffffffffffffffffffff1602179055508173ffffffffffffffffffffffffffffffffffffffff168173ffffffffffffffffffffffffffffffffffffffff167f8be0079c531659141344cd1fd0a4f28419497f9722a3daafe3b4186f6b6457e060405160405180910390a35050565b600080fd5b600073ffffffffffffffffffffffffffffffffffffffff82169050919050565b60006102e2826102b7565b9050919050565b6102f2816102d7565b81146102fd57600080fd5b50565b60008151905061030f816102e9565b92915050565b60006020828403121561032b5761032a6102b2565b5b600061033984828501610300565b91505092915050565b600081519050919050565b7f4e487b7100000000000000000000000000000000000000000000000000000000600052604160045260246000fd5b7f4e487b7100000000000000000000000000000000000000000000000000000000600052602260045260246000fd5b600060028204905060018216806103c357607f821691505b6020821081036103d6576103d561037c565b5b50919050565b60008190508160005260206000209050919050565b60006020601f8301049050919050565b600082821b905092915050565b60006008830261043e7fffffffffffffffffffffffffffffffffffffffffffffffffffffffffffffffff82610401565b6104488683610401565b95508019841693508086168417925050509392505050565b6000819050919050565b6000819050919050565b600061048f61048a61048584610460565b61046a565b610460565b9050919050565b6000819050919050565b6104a983610474565b6104bd6104b582610496565b84845461040e565b825550505050565b600090565b6104d26104c5565b6104dd8184846104a0565b505050565b5b81811015610501576104f66000826104ca565b6001810190506104e3565b5050565b601f82111561054657610517816103dc565b610520846103f1565b8101602085101561052f578190505b61054361053b856103f1565b8301826104e2565b50505b505050565b600082821c905092915050565b60006105696000198460080261054b565b1980831691505092915050565b60006105828383610558565b9150826002028217905092915050565b61059b82610342565b67ffffffffffffffff8111156105b4576105b361034d565b5b6105be82546103ab565b6105c9828285610505565b600060209050601f8311600181146105fc57600084156105ea578287015190505b6105f48582610576565b86555061065c565b601f19841661060a866103dc565b60005b828110156106325784890151825560018201915060208501945060208101905061060d565b8683101561064f578489015161064b601f891682610558565b8355505b6001600288020188555050505b505050505050565b61066d816102d7565b82525050565b60006020820190506106886000830184610664565b92915050565b600082825260208201905092915050565b7f496e76616c6964205365726965436f696e206164647265737300000000000000600082015250565b60006106d560198361068e565b91506106e08261069f565b602082019050919050565b60006020820190508181036000830152610704816106c8565b9050919050565b60805161515461072d60003960008181611b9f015261265201526151546000f3fe608060405234801561001057600080fd5b50600436106101c45760003560e01c80635b7baf64116100f9578063970ac6fd11610097578063c87b56dd11610071578063c87b56dd1461051e578063d1c2cc7a1461054e578063e985e9c51461056a578063f2fde38b1461059a576101c4565b8063970ac6fd146104ca578063a22cb465146104e6578063b88d4fde14610502576101c4565b8063715018a6116100d3578063715018a6146104545780638da5cb5b1461045e57806395d89b411461047c5780639675c0091461049a576101c4565b80635b7baf64146103d85780636352211e146103f457806370a0823114610424576101c4565b806323b872dd1161016657806342842e0e1161014057806342842e0e14610340578063434377091461035c5780634570723d1461038c5780634d7142b1146103a8576101c4565b806323b872dd146102ea5780632b4e74d91461030657806336fbad2614610322576101c4565b8063095ea7b3116101a2578063095ea7b314610247578063107046bd146102635780631112a78b1461029e5780632245f152146102ce576101c4565b806301ffc9a7146101c957806306fdde03146101f9578063081812fc14610217575b600080fd5b6101e360048036038101906101de919061360d565b6105b6565b6040516101f09190613655565b60405180910390f35b610201610698565b60405161020e9190613700565b60405180910390f35b610231600480360381019061022c9190613758565b61072a565b60405161023e91906137c6565b60405180910390f35b610261600480360381019061025c919061380d565b610746565b005b61027d60048036038101906102789190613758565b61075c565b6040516102959c9b9a99989796959493929190613927565b60405180910390f35b6102b860048036038101906102b391906139fd565b610a84565b6040516102c59190613a4c565b60405180910390f35b6102e860048036038101906102e39190613758565b610b7f565b005b61030460048036038101906102ff9190613a67565b610de9565b005b610320600480360381019061031b9190613ae6565b610eeb565b005b61032a61125f565b6040516103379190613b39565b60405180910390f35b61035a60048036038101906103559190613a67565b611275565b005b610376600480360381019061037191906139fd565b611295565b6040516103839190613b54565b60405180910390f35b6103a660048036038101906103a19190613c2c565b6112c5565b005b6103c260048036038101906103bd9190613758565b611791565b6040516103cf9190613700565b60405180910390f35b6103f260048036038101906103ed9190613758565b611888565b005b61040e60048036038101906104099190613758565b611cd0565b60405161041b91906137c6565b60405180910390f35b61043e60048036038101906104399190613d3c565b611ce2565b60405161044b9190613a4c565b60405180910390f35b61045c611d9c565b005b610466611db0565b60405161047391906137c6565b60405180910390f35b610484611dda565b6040516104919190613700565b60405180910390f35b6104b460048036038101906104af9190613758565b611e6c565b6040516104c19190613d69565b60405180910390f35b6104e460048036038101906104df9190613758565b611ee8565b005b61050060048036038101906104fb9190613db0565b612038565b005b61051c60048036038101906105179190613f20565b61204e565b005b61053860048036038101906105339190613758565b612073565b6040516105459190613700565b60405180910390f35b61056860048036038101906105639190613fa3565b61216a565b005b610584600480360381019061057f9190613fe3565b612837565b6040516105919190613655565b60405180910390f35b6105b460048036038101906105af9190613d3c565b6128cb565b005b60007f80ac58cd000000000000000000000000000000000000000000000000000000007bffffffffffffffffffffffffffffffffffffffffffffffffffffffff1916827bffffffffffffffffffffffffffffffffffffffffffffffffffffffff1916148061068157507f5b5e139f000000000000000000000000000000000000000000000000000000007bffffffffffffffffffffffffffffffffffffffffffffffffffffffff1916827bffffffffffffffffffffffffffffffffffffffffffffffffffffffff1916145b80610691575061069082612951565b5b9050919050565b6060600080546106a790614052565b80601f01602080910402602001604051908101604052809291908181526020018280546106d390614052565b80156107205780601f106106f557610100808354040283529160200191610720565b820191906000526020600020905b81548152906001019060200180831161070357829003601f168201915b5050505050905090565b6000610735826129bb565b5061073f82612a43565b9050919050565b6107588282610753612a80565b612a88565b5050565b6007818154811061076c57600080fd5b90600052602060002090600602016000915090508060000160009054906101000a90046bffffffffffffffffffffffff169080600001600c9054906101000a90046bffffffffffffffffffffffff16908060000160189054906101000a900463ffffffff169080600001601c9054906101000a900463ffffffff16908060010160009054906101000a900461ffff16908060010160029054906101000a900460ff16908060010160039054906101000a900473ffffffffffffffffffffffffffffffffffffffff16908060010160179054906101000a900460ff169080600201805461085790614052565b80601f016020809104026020016040519081016040528092919081815260200182805461088390614052565b80156108d05780601f106108a5576101008083540402835291602001916108d0565b820191906000526020600020905b8154815290600101906020018083116108b357829003601f168201915b5050505050908060030180546108e590614052565b80601f016020809104026020016040519081016040528092919081815260200182805461091190614052565b801561095e5780601f106109335761010080835404028352916020019161095e565b820191906000526020600020905b81548152906001019060200180831161094157829003601f168201915b50505050509080600401805461097390614052565b80601f016020809104026020016040519081016040528092919081815260200182805461099f90614052565b80156109ec5780601f106109c1576101008083540402835291602001916109ec565b820191906000526020600020905b8154815290600101906020018083116109cf57829003601f168201915b505050505090806005018054610a0190614052565b80601f0160208091040260200160405190810160405280929190818152602001828054610a2d90614052565b8015610a7a5780601f10610a4f57610100808354040283529160200191610a7a565b820191906000526020600020905b815481529060010190602001808311610a5d57829003601f168201915b505050505090508c565b6000826007805490508110610ac5576040517f38fde52b00000000000000000000000000000000000000000000000000000000815260040160405180910390fd5b60078481548110610ad957610ad8614083565b5b906000526020600020906006020160010160009054906101000a900461ffff1661ffff1660646009600087815260200190815260200160002060008673ffffffffffffffffffffffffffffffffffffffff1673ffffffffffffffffffffffffffffffffffffffff16815260200190815260200160002060009054906101000a900461ffff1661ffff16610b6c91906140e1565b610b769190614152565b91505092915050565b806007805490508110610bbe576040517f38fde52b00000000000000000000000000000000000000000000000000000000815260040160405180910390fd5b600060078381548110610bd457610bd3614083565b5b906000526020600020906006020190503373ffffffffffffffffffffffffffffffffffffffff168160010160039054906101000a900473ffffffffffffffffffffffffffffffffffffffff1673ffffffffffffffffffffffffffffffffffffffff1614610c76576040517f08c379a0000000000000000000000000000000000000000000000000000000008152600401610c6d906141f5565b60405180910390fd5b60016002811115610c8a57610c896138b0565b5b8160010160179054906101000a900460ff166002811115610cae57610cad6138b0565b5b14610cee576040517f08c379a0000000000000000000000000000000000000000000000000000000008152600401610ce590614261565b60405180910390fd5b620151808160000160189054906101000a900463ffffffff1663ffffffff16610d1791906140e1565b81600001601c9054906101000a900463ffffffff1663ffffffff16610d3c9190614281565b421015610d7e576040517f08c379a0000000000000000000000000000000000000000000000000000000008152600401610d7590614301565b60405180910390fd5b60028160010160176101000a81548160ff02191690836002811115610da657610da56138b0565b5b0217905550827f35872be4c2085eaf9ca9a10d056eefec79968f825846792411ede75f331e93926002604051610ddc9190613d69565b60405180910390a2505050565b600073ffffffffffffffffffffffffffffffffffffffff168273ffffffffffffffffffffffffffffffffffffffff1603610e5b5760006040517f64a0ae92000000000000000000000000000000000000000000000000000000008152600401610e5291906137c6565b60405180910390fd5b6000610e6f8383610e6a612a80565b612a9a565b90508373ffffffffffffffffffffffffffffffffffffffff168173ffffffffffffffffffffffffffffffffffffffff1614610ee5578382826040517f64283d7b000000000000000000000000000000000000000000000000000000008152600401610edc93929190614321565b60405180910390fd5b50505050565b826007805490508110610f2a576040517f38fde52b00000000000000000000000000000000000000000000000000000000815260040160405180910390fd5b600073ffffffffffffffffffffffffffffffffffffffff168373ffffffffffffffffffffffffffffffffffffffff1603610f99576040517f08c379a0000000000000000000000000000000000000000000000000000000008152600401610f90906143a4565b60405180910390fd5b3373ffffffffffffffffffffffffffffffffffffffff168373ffffffffffffffffffffffffffffffffffffffff1603611007576040517f08c379a0000000000000000000000000000000000000000000000000000000008152600401610ffe90614436565b60405180910390fd5b60008261ffff161161104e576040517f08c379a0000000000000000000000000000000000000000000000000000000008152600401611045906144a2565b60405180910390fd5b8161ffff166009600086815260200190815260200160002060003373ffffffffffffffffffffffffffffffffffffffff1673ffffffffffffffffffffffffffffffffffffffff16815260200190815260200160002060009054906101000a900461ffff1661ffff1610156110f7576040517f08c379a00000000000000000000000000000000000000000000000000000000081526004016110ee9061450e565b60405180910390fd5b816009600086815260200190815260200160002060003373ffffffffffffffffffffffffffffffffffffffff1673ffffffffffffffffffffffffffffffffffffffff16815260200190815260200160002060008282829054906101000a900461ffff160392506101000a81548161ffff021916908361ffff160217905550816009600086815260200190815260200160002060008573ffffffffffffffffffffffffffffffffffffffff1673ffffffffffffffffffffffffffffffffffffffff16815260200190815260200160002060008282829054906101000a900461ffff160192506101000a81548161ffff021916908361ffff1602179055508273ffffffffffffffffffffffffffffffffffffffff163373ffffffffffffffffffffffffffffffffffffffff16857f333bbff7155ed997e8443a83b6e7140fd17a578daa83cb566f2f4eb680d279a1856040516112519190613b54565b60405180910390a450505050565b600860009054906101000a900463ffffffff1681565b6112908383836040518060200160405280600081525061204e565b505050565b60096020528160005260406000206020528060005260406000206000915091509054906101000a900461ffff1681565b6000866bffffffffffffffffffffffff1611611316576040517f08c379a000000000000000000000000000000000000000000000000000000000815260040161130d906145a0565b60405180910390fd5b60008563ffffffff161180156113345750610e428563ffffffff1611155b611373576040517f08c379a000000000000000000000000000000000000000000000000000000000815260040161136a9061460c565b60405180910390fd5b60008a8a905011801561138a575060c88a8a905011155b6113c9576040517f08c379a00000000000000000000000000000000000000000000000000000000081526004016113c090614678565b60405180910390fd5b6000888890501161140f576040517f08c379a0000000000000000000000000000000000000000000000000000000008152600401611406906146e4565b60405180910390fd5b60008484905011611455576040517f08c379a000000000000000000000000000000000000000000000000000000000815260040161144c90614750565b60405180910390fd5b6000828290501161149b576040517f08c379a0000000000000000000000000000000000000000000000000000000008152600401611492906147bc565b60405180910390fd5b6000600860009054906101000a900463ffffffff1690506000600760018160018154018082558091505003906000526020600020906006020190508b8b8260020191826114e9929190614993565b5089898260030191826114fd929190614993565b50878160000160006101000a8154816bffffffffffffffffffffffff02191690836bffffffffffffffffffffffff160217905550868160000160186101000a81548163ffffffff021916908363ffffffff160217905550338160010160036101000a81548173ffffffffffffffffffffffffffffffffffffffff021916908373ffffffffffffffffffffffffffffffffffffffff16021790555060008160010160176101000a81548160ff021916908360028111156115bf576115be6138b0565b5b021790555085858260040191826115d7929190614993565b506127108160010160006101000a81548161ffff021916908361ffff160217905550838382600501918261160c929190614993565b5060008160010160026101000a81548160ff02191690831515021790555061163a338363ffffffff16612cb4565b612710600960008463ffffffff16815260200190815260200160002060003373ffffffffffffffffffffffffffffffffffffffff1673ffffffffffffffffffffffffffffffffffffffff16815260200190815260200160002060006101000a81548161ffff021916908361ffff1602179055503373ffffffffffffffffffffffffffffffffffffffff168263ffffffff167f0d2b32b6c43cc2b3faf3cd128225ac318d5961c7aec8ca50b6ea78e3471361b68e8e88886040516117009493929190614a90565b60405180910390a38163ffffffff167fff207fac856b3d65e51a678979415c276e6ec4b8add10067fbd9274487eec0ae8787604051611740929190614acb565b60405180910390a26008600081819054906101000a900463ffffffff168092919060010191906101000a81548163ffffffff021916908363ffffffff16021790555050505050505050505050505050565b60608160078054905081106117d2576040517f38fde52b00000000000000000000000000000000000000000000000000000000815260040160405180910390fd5b600783815481106117e6576117e5614083565b5b9060005260206000209060060201600401805461180290614052565b80601f016020809104026020016040519081016040528092919081815260200182805461182e90614052565b801561187b5780601f106118505761010080835404028352916020019161187b565b820191906000526020600020905b81548152906001019060200180831161185e57829003601f168201915b5050505050915050919050565b8060078054905081106118c7576040517f38fde52b00000000000000000000000000000000000000000000000000000000815260040160405180910390fd5b6000600783815481106118dd576118dc614083565b5b90600052602060002090600602019050600280811115611900576118ff6138b0565b5b8160010160179054906101000a900460ff166002811115611924576119236138b0565b5b14611964576040517f08c379a000000000000000000000000000000000000000000000000000000000815260040161195b90614b3b565b60405180910390fd5b8060010160029054906101000a900460ff16156119b6576040517f08c379a00000000000000000000000000000000000000000000000000000000081526004016119ad90614ba7565b60405180910390fd5b60006009600085815260200190815260200160002060003373ffffffffffffffffffffffffffffffffffffffff1673ffffffffffffffffffffffffffffffffffffffff16815260200190815260200160002060009054906101000a900461ffff1661ffff1611611a5b576040517f08c379a0000000000000000000000000000000000000000000000000000000008152600401611a5290614c13565b60405180910390fd5b60006009600085815260200190815260200160002060003373ffffffffffffffffffffffffffffffffffffffff1673ffffffffffffffffffffffffffffffffffffffff16815260200190815260200160002060009054906101000a900461ffff16905060008260000160009054906101000a90046bffffffffffffffffffffffff166bffffffffffffffffffffffff1683600001600c9054906101000a90046bffffffffffffffffffffffff166bffffffffffffffffffffffff168361ffff16611b2591906140e1565b611b2f9190614152565b905060006009600087815260200190815260200160002060003373ffffffffffffffffffffffffffffffffffffffff1673ffffffffffffffffffffffffffffffffffffffff16815260200190815260200160002060006101000a81548161ffff021916908361ffff1602179055507f000000000000000000000000000000000000000000000000000000000000000073ffffffffffffffffffffffffffffffffffffffff1663a9059cbb33836040518363ffffffff1660e01b8152600401611bf8929190614c64565b6020604051808303816000875af1158015611c17573d6000803e3d6000fd5b505050506040513d601f19601f82011682018060405250810190611c3b9190614ca2565b611c7a576040517f08c379a0000000000000000000000000000000000000000000000000000000008152600401611c7190614d1b565b60405180910390fd5b3373ffffffffffffffffffffffffffffffffffffffff16857f6fd108bcd9afa1ee53e6efdf27e3af47b5291b04da58fe2c1414241777b1bf4d83604051611cc19190614d3b565b60405180910390a35050505050565b6000611cdb826129bb565b9050919050565b60008073ffffffffffffffffffffffffffffffffffffffff168273ffffffffffffffffffffffffffffffffffffffff1603611d555760006040517f89c62b64000000000000000000000000000000000000000000000000000000008152600401611d4c91906137c6565b60405180910390fd5b600360008373ffffffffffffffffffffffffffffffffffffffff1673ffffffffffffffffffffffffffffffffffffffff168152602001908152602001600020549050919050565b611da4612dad565b611dae6000612e34565b565b6000600660009054906101000a900473ffffffffffffffffffffffffffffffffffffffff16905090565b606060018054611de990614052565b80601f0160208091040260200160405190810160405280929190818152602001828054611e1590614052565b8015611e625780601f10611e3757610100808354040283529160200191611e62565b820191906000526020600020905b815481529060010190602001808311611e4557829003601f168201915b5050505050905090565b6000816007805490508110611ead576040517f38fde52b00000000000000000000000000000000000000000000000000000000815260040160405180910390fd5b60078381548110611ec157611ec0614083565b5b906000526020600020906006020160010160179054906101000a900460ff16915050919050565b611ef0612dad565b806007805490508110611f2f576040517f38fde52b00000000000000000000000000000000000000000000000000000000815260040160405180910390fd5b600060078381548110611f4557611f44614083565b5b9060005260206000209060060201905060016002811115611f6957611f686138b0565b5b8160010160179054906101000a900460ff166002811115611f8d57611f8c6138b0565b5b14611fcd576040517f08c379a0000000000000000000000000000000000000000000000000000000008152600401611fc490614261565b60405180910390fd5b60028160010160176101000a81548160ff02191690836002811115611ff557611ff46138b0565b5b0217905550827f35872be4c2085eaf9ca9a10d056eefec79968f825846792411ede75f331e9392600260405161202b9190613d69565b60405180910390a2505050565b61204a612043612a80565b8383612efa565b5050565b612059848484610de9565b61206d612064612a80565b85858585613069565b50505050565b60608160078054905081106120b4576040517f38fde52b00000000000000000000000000000000000000000000000000000000815260040160405180910390fd5b600783815481106120c8576120c7614083565b5b906000526020600020906006020160050180546120e490614052565b80601f016020809104026020016040519081016040528092919081815260200182805461211090614052565b801561215d5780601f106121325761010080835404028352916020019161215d565b820191906000526020600020905b81548152906001019060200180831161214057829003601f168201915b5050505050915050919050565b8160078054905081106121a9576040517f38fde52b00000000000000000000000000000000000000000000000000000000815260040160405180910390fd5b6000600784815481106121bf576121be614083565b5b90600052602060002090600602019050600081600001600c9054906101000a90046bffffffffffffffffffffffff16905060008260000160009054906101000a90046bffffffffffffffffffffffff169050806bffffffffffffffffffffffff16858361222c9190614d56565b6bffffffffffffffffffffffff16111561227b576040517f08c379a000000000000000000000000000000000000000000000000000000000815260040161227290614de2565b60405180910390fd5b6000600281111561228f5761228e6138b0565b5b8360010160179054906101000a900460ff1660028111156122b3576122b26138b0565b5b146122f3576040517f08c379a00000000000000000000000000000000000000000000000000000000081526004016122ea90614e4e565b60405180910390fd5b6000856bffffffffffffffffffffffff1611612344576040517f08c379a000000000000000000000000000000000000000000000000000000000815260040161233b906144a2565b60405180910390fd5b600085836123529190614d56565b90506000826bffffffffffffffffffffffff168560010160009054906101000a900461ffff1661ffff16886bffffffffffffffffffffffff1661239591906140e1565b61239f9190614152565b905061ffff8016836bffffffffffffffffffffffff168660010160009054906101000a900461ffff1661ffff16896bffffffffffffffffffffffff166123e591906140e1565b6123ef9190614152565b1115612430576040517f08c379a000000000000000000000000000000000000000000000000000000000815260040161242790614eba565b60405180910390fd5b8061ffff16600960008a815260200190815260200160002060008760010160039054906101000a900473ffffffffffffffffffffffffffffffffffffffff1673ffffffffffffffffffffffffffffffffffffffff1673ffffffffffffffffffffffffffffffffffffffff16815260200190815260200160002060009054906101000a900461ffff1661ffff1610156124fd576040517f08c379a00000000000000000000000000000000000000000000000000000000081526004016124f490614f26565b60405180910390fd5b8185600001600c6101000a8154816bffffffffffffffffffffffff02191690836bffffffffffffffffffffffff16021790555080600960008a815260200190815260200160002060008760010160039054906101000a900473ffffffffffffffffffffffffffffffffffffffff1673ffffffffffffffffffffffffffffffffffffffff1673ffffffffffffffffffffffffffffffffffffffff16815260200190815260200160002060008282829054906101000a900461ffff160392506101000a81548161ffff021916908361ffff16021790555080600960008a815260200190815260200160002060003373ffffffffffffffffffffffffffffffffffffffff1673ffffffffffffffffffffffffffffffffffffffff16815260200190815260200160002060008282829054906101000a900461ffff160192506101000a81548161ffff021916908361ffff1602179055507f000000000000000000000000000000000000000000000000000000000000000073ffffffffffffffffffffffffffffffffffffffff166323b872dd33308a6040518463ffffffff1660e01b81526004016126ad93929190614f46565b6020604051808303816000875af11580156126cc573d6000803e3d6000fd5b505050506040513d601f19601f820116820180604052508101906126f09190614ca2565b61272f576040517f08c379a000000000000000000000000000000000000000000000000000000000815260040161272690614fc9565b60405180910390fd5b826bffffffffffffffffffffffff16826bffffffffffffffffffffffff16106127dc5760018560010160176101000a81548160ff0219169083600281111561277a576127796138b0565b5b02179055504285600001601c6101000a81548163ffffffff021916908363ffffffff160217905550877f35872be4c2085eaf9ca9a10d056eefec79968f825846792411ede75f331e939260016040516127d39190613d69565b60405180910390a25b3373ffffffffffffffffffffffffffffffffffffffff16887f3a2bb1be690cb0976473d71b3a16e010e628fe9d9bf981c11e60864c556c8f388984604051612825929190614fe9565b60405180910390a35050505050505050565b6000600560008473ffffffffffffffffffffffffffffffffffffffff1673ffffffffffffffffffffffffffffffffffffffff16815260200190815260200160002060008373ffffffffffffffffffffffffffffffffffffffff1673ffffffffffffffffffffffffffffffffffffffff16815260200190815260200160002060009054906101000a900460ff16905092915050565b6128d3612dad565b600073ffffffffffffffffffffffffffffffffffffffff168173ffffffffffffffffffffffffffffffffffffffff16036129455760006040517f1e4fbdf700000000000000000000000000000000000000000000000000000000815260040161293c91906137c6565b60405180910390fd5b61294e81612e34565b50565b60007f01ffc9a7000000000000000000000000000000000000000000000000000000007bffffffffffffffffffffffffffffffffffffffffffffffffffffffff1916827bffffffffffffffffffffffffffffffffffffffffffffffffffffffff1916149050919050565b6000806129c78361321a565b9050600073ffffffffffffffffffffffffffffffffffffffff168173ffffffffffffffffffffffffffffffffffffffff1603612a3a57826040517f7e273289000000000000000000000000000000000000000000000000000000008152600401612a319190613a4c565b60405180910390fd5b80915050919050565b60006004600083815260200190815260200160002060009054906101000a900473ffffffffffffffffffffffffffffffffffffffff169050919050565b600033905090565b612a958383836001613257565b505050565b600080612aa68461321a565b9050600073ffffffffffffffffffffffffffffffffffffffff168373ffffffffffffffffffffffffffffffffffffffff1614612ae857612ae781848661341c565b5b600073ffffffffffffffffffffffffffffffffffffffff168173ffffffffffffffffffffffffffffffffffffffff1614612b7957612b2a600085600080613257565b6001600360008373ffffffffffffffffffffffffffffffffffffffff1673ffffffffffffffffffffffffffffffffffffffff168152602001908152602001600020600082825403925050819055505b600073ffffffffffffffffffffffffffffffffffffffff168573ffffffffffffffffffffffffffffffffffffffff1614612bfc576001600360008773ffffffffffffffffffffffffffffffffffffffff1673ffffffffffffffffffffffffffffffffffffffff168152602001908152602001600020600082825401925050819055505b846002600086815260200190815260200160002060006101000a81548173ffffffffffffffffffffffffffffffffffffffff021916908373ffffffffffffffffffffffffffffffffffffffff160217905550838573ffffffffffffffffffffffffffffffffffffffff168273ffffffffffffffffffffffffffffffffffffffff167fddf252ad1be2c89b69c2b068fc378daa952ba7f163c4a11628f55a4df523b3ef60405160405180910390a4809150509392505050565b600073ffffffffffffffffffffffffffffffffffffffff168273ffffffffffffffffffffffffffffffffffffffff1603612d265760006040517f64a0ae92000000000000000000000000000000000000000000000000000000008152600401612d1d91906137c6565b60405180910390fd5b6000612d3483836000612a9a565b9050600073ffffffffffffffffffffffffffffffffffffffff168173ffffffffffffffffffffffffffffffffffffffff1614612da85760006040517f73c6ac6e000000000000000000000000000000000000000000000000000000008152600401612d9f91906137c6565b60405180910390fd5b505050565b612db5612a80565b73ffffffffffffffffffffffffffffffffffffffff16612dd3611db0565b73ffffffffffffffffffffffffffffffffffffffff1614612e3257612df6612a80565b6040517f118cdaa7000000000000000000000000000000000000000000000000000000008152600401612e2991906137c6565b60405180910390fd5b565b6000600660009054906101000a900473ffffffffffffffffffffffffffffffffffffffff16905081600660006101000a81548173ffffffffffffffffffffffffffffffffffffffff021916908373ffffffffffffffffffffffffffffffffffffffff1602179055508173ffffffffffffffffffffffffffffffffffffffff168173ffffffffffffffffffffffffffffffffffffffff167f8be0079c531659141344cd1fd0a4f28419497f9722a3daafe3b4186f6b6457e060405160405180910390a35050565b600073ffffffffffffffffffffffffffffffffffffffff168273ffffffffffffffffffffffffffffffffffffffff1603612f6b57816040517f5b08ba18000000000000000000000000000000000000000000000000000000008152600401612f6291906137c6565b60405180910390fd5b80600560008573ffffffffffffffffffffffffffffffffffffffff1673ffffffffffffffffffffffffffffffffffffffff16815260200190815260200160002060008473ffffffffffffffffffffffffffffffffffffffff1673ffffffffffffffffffffffffffffffffffffffff16815260200190815260200160002060006101000a81548160ff0219169083151502179055508173ffffffffffffffffffffffffffffffffffffffff168373ffffffffffffffffffffffffffffffffffffffff167f17307eab39ab6107e8899845ad3d59bd9653f200f220920489ca2b5937696c318360405161305c9190613655565b60405180910390a3505050565b60008373ffffffffffffffffffffffffffffffffffffffff163b1115613213578273ffffffffffffffffffffffffffffffffffffffff1663150b7a02868685856040518563ffffffff1660e01b81526004016130c89493929190615067565b6020604051808303816000875af192505050801561310457506040513d601f19601f8201168201806040525081019061310191906150c8565b60015b613188573d8060008114613134576040519150601f19603f3d011682016040523d82523d6000602084013e613139565b606091505b50600081510361318057836040517f64a0ae9200000000000000000000000000000000000000000000000000000000815260040161317791906137c6565b60405180910390fd5b805181602001fd5b63150b7a0260e01b7bffffffffffffffffffffffffffffffffffffffffffffffffffffffff1916817bffffffffffffffffffffffffffffffffffffffffffffffffffffffff19161461321157836040517f64a0ae9200000000000000000000000000000000000000000000000000000000815260040161320891906137c6565b60405180910390fd5b505b5050505050565b60006002600083815260200190815260200160002060009054906101000a900473ffffffffffffffffffffffffffffffffffffffff169050919050565b80806132905750600073ffffffffffffffffffffffffffffffffffffffff168273ffffffffffffffffffffffffffffffffffffffff1614155b156133c45760006132a0846129bb565b9050600073ffffffffffffffffffffffffffffffffffffffff168373ffffffffffffffffffffffffffffffffffffffff161415801561330b57508273ffffffffffffffffffffffffffffffffffffffff168173ffffffffffffffffffffffffffffffffffffffff1614155b801561331e575061331c8184612837565b155b1561336057826040517fa9fbf51f00000000000000000000000000000000000000000000000000000000815260040161335791906137c6565b60405180910390fd5b81156133c257838573ffffffffffffffffffffffffffffffffffffffff168273ffffffffffffffffffffffffffffffffffffffff167f8c5be1e5ebec7d5bd14f71427d1e84f3dd0314c0f7b2291e5b200ac8c7c3b92560405160405180910390a45b505b836004600085815260200190815260200160002060006101000a81548173ffffffffffffffffffffffffffffffffffffffff021916908373ffffffffffffffffffffffffffffffffffffffff16021790555050505050565b6134278383836134e0565b6134db57600073ffffffffffffffffffffffffffffffffffffffff168373ffffffffffffffffffffffffffffffffffffffff160361349c57806040517f7e2732890000000000000000000000000000000000000000000000000000000081526004016134939190613a4c565b60405180910390fd5b81816040517f177e802f0000000000000000000000000000000000000000000000000000000081526004016134d29291906150f5565b60405180910390fd5b505050565b60008073ffffffffffffffffffffffffffffffffffffffff168373ffffffffffffffffffffffffffffffffffffffff161415801561359857508273ffffffffffffffffffffffffffffffffffffffff168473ffffffffffffffffffffffffffffffffffffffff16148061355957506135588484612837565b5b8061359757508273ffffffffffffffffffffffffffffffffffffffff1661357f83612a43565b73ffffffffffffffffffffffffffffffffffffffff16145b5b90509392505050565b6000604051905090565b600080fd5b600080fd5b60007fffffffff0000000000000000000000000000000000000000000000000000000082169050919050565b6135ea816135b5565b81146135f557600080fd5b50565b600081359050613607816135e1565b92915050565b600060208284031215613623576136226135ab565b5b6000613631848285016135f8565b91505092915050565b60008115159050919050565b61364f8161363a565b82525050565b600060208201905061366a6000830184613646565b92915050565b600081519050919050565b600082825260208201905092915050565b60005b838110156136aa57808201518184015260208101905061368f565b60008484015250505050565b6000601f19601f8301169050919050565b60006136d282613670565b6136dc818561367b565b93506136ec81856020860161368c565b6136f5816136b6565b840191505092915050565b6000602082019050818103600083015261371a81846136c7565b905092915050565b6000819050919050565b61373581613722565b811461374057600080fd5b50565b6000813590506137528161372c565b92915050565b60006020828403121561376e5761376d6135ab565b5b600061377c84828501613743565b91505092915050565b600073ffffffffffffffffffffffffffffffffffffffff82169050919050565b60006137b082613785565b9050919050565b6137c0816137a5565b82525050565b60006020820190506137db60008301846137b7565b92915050565b6137ea816137a5565b81146137f557600080fd5b50565b600081359050613807816137e1565b92915050565b60008060408385031215613824576138236135ab565b5b6000613832858286016137f8565b925050602061384385828601613743565b9150509250929050565b60006bffffffffffffffffffffffff82169050919050565b61386e8161384d565b82525050565b600063ffffffff82169050919050565b61388d81613874565b82525050565b600061ffff82169050919050565b6138aa81613893565b82525050565b7f4e487b7100000000000000000000000000000000000000000000000000000000600052602160045260246000fd5b600381106138f0576138ef6138b0565b5b50565b6000819050613901826138df565b919050565b6000613911826138f3565b9050919050565b61392181613906565b82525050565b60006101808201905061393d600083018f613865565b61394a602083018e613865565b613957604083018d613884565b613964606083018c613884565b613971608083018b6138a1565b61397e60a083018a613646565b61398b60c08301896137b7565b61399860e0830188613918565b8181036101008301526139ab81876136c7565b90508181036101208301526139c081866136c7565b90508181036101408301526139d581856136c7565b90508181036101608301526139ea81846136c7565b90509d9c50505050505050505050505050565b60008060408385031215613a1457613a136135ab565b5b6000613a2285828601613743565b9250506020613a33858286016137f8565b9150509250929050565b613a4681613722565b82525050565b6000602082019050613a616000830184613a3d565b92915050565b600080600060608486031215613a8057613a7f6135ab565b5b6000613a8e868287016137f8565b9350506020613a9f868287016137f8565b9250506040613ab086828701613743565b9150509250925092565b613ac381613893565b8114613ace57600080fd5b50565b600081359050613ae081613aba565b92915050565b600080600060608486031215613aff57613afe6135ab565b5b6000613b0d86828701613743565b9350506020613b1e868287016137f8565b9250506040613b2f86828701613ad1565b9150509250925092565b6000602082019050613b4e6000830184613884565b92915050565b6000602082019050613b6960008301846138a1565b92915050565b600080fd5b600080fd5b600080fd5b60008083601f840112613b9457613b93613b6f565b5b8235905067ffffffffffffffff811115613bb157613bb0613b74565b5b602083019150836001820283011115613bcd57613bcc613b79565b5b9250929050565b613bdd8161384d565b8114613be857600080fd5b50565b600081359050613bfa81613bd4565b92915050565b613c0981613874565b8114613c1457600080fd5b50565b600081359050613c2681613c00565b92915050565b60008060008060008060008060008060c08b8d031215613c4f57613c4e6135ab565b5b60008b013567ffffffffffffffff811115613c6d57613c6c6135b0565b5b613c798d828e01613b7e565b9a509a505060208b013567ffffffffffffffff811115613c9c57613c9b6135b0565b5b613ca88d828e01613b7e565b98509850506040613cbb8d828e01613beb565b9650506060613ccc8d828e01613c17565b95505060808b013567ffffffffffffffff811115613ced57613cec6135b0565b5b613cf98d828e01613b7e565b945094505060a08b013567ffffffffffffffff811115613d1c57613d1b6135b0565b5b613d288d828e01613b7e565b92509250509295989b9194979a5092959850565b600060208284031215613d5257613d516135ab565b5b6000613d60848285016137f8565b91505092915050565b6000602082019050613d7e6000830184613918565b92915050565b613d8d8161363a565b8114613d9857600080fd5b50565b600081359050613daa81613d84565b92915050565b60008060408385031215613dc757613dc66135ab565b5b6000613dd5858286016137f8565b9250506020613de685828601613d9b565b9150509250929050565b600080fd5b7f4e487b7100000000000000000000000000000000000000000000000000000000600052604160045260246000fd5b613e2d826136b6565b810181811067ffffffffffffffff82111715613e4c57613e4b613df5565b5b80604052505050565b6000613e5f6135a1565b9050613e6b8282613e24565b919050565b600067ffffffffffffffff821115613e8b57613e8a613df5565b5b613e94826136b6565b9050602081019050919050565b82818337600083830152505050565b6000613ec3613ebe84613e70565b613e55565b905082815260208101848484011115613edf57613ede613df0565b5b613eea848285613ea1565b509392505050565b600082601f830112613f0757613f06613b6f565b5b8135613f17848260208601613eb0565b91505092915050565b60008060008060808587031215613f3a57613f396135ab565b5b6000613f48878288016137f8565b9450506020613f59878288016137f8565b9350506040613f6a87828801613743565b925050606085013567ffffffffffffffff811115613f8b57613f8a6135b0565b5b613f9787828801613ef2565b91505092959194509250565b60008060408385031215613fba57613fb96135ab565b5b6000613fc885828601613743565b9250506020613fd985828601613beb565b9150509250929050565b60008060408385031215613ffa57613ff96135ab565b5b6000614008858286016137f8565b9250506020614019858286016137f8565b9150509250929050565b7f4e487b7100000000000000000000000000000000000000000000000000000000600052602260045260246000fd5b6000600282049050600182168061406a57607f821691505b60208210810361407d5761407c614023565b5b50919050565b7f4e487b7100000000000000000000000000000000000000000000000000000000600052603260045260246000fd5b7f4e487b7100000000000000000000000000000000000000000000000000000000600052601160045260246000fd5b60006140ec82613722565b91506140f783613722565b925082820261410581613722565b9150828204841483151761411c5761411b6140b2565b5b5092915050565b7f4e487b7100000000000000000000000000000000000000000000000000000000600052601260045260246000fd5b600061415d82613722565b915061416883613722565b92508261417857614177614123565b5b828204905092915050565b7f4f6e6c792070726f64756365722063616e20636f6d706c6574652070726f6a6560008201527f6374000000000000000000000000000000000000000000000000000000000000602082015250565b60006141df60228361367b565b91506141ea82614183565b604082019050919050565b6000602082019050818103600083015261420e816141d2565b9050919050565b7f50726f6a656374206e6f7420696e2070726f64756374696f6e00000000000000600082015250565b600061424b60198361367b565b915061425682614215565b602082019050919050565b6000602082019050818103600083015261427a8161423e565b9050919050565b600061428c82613722565b915061429783613722565b92508282019050808211156142af576142ae6140b2565b5b92915050565b7f50726f6a656374206475726174696f6e206e6f74207265616368656400000000600082015250565b60006142eb601c8361367b565b91506142f6826142b5565b602082019050919050565b6000602082019050818103600083015261431a816142de565b9050919050565b600060608201905061433660008301866137b7565b6143436020830185613a3d565b61435060408301846137b7565b949350505050565b7f496e76616c696420726563697069656e74000000000000000000000000000000600082015250565b600061438e60118361367b565b915061439982614358565b602082019050919050565b600060208201905081810360008301526143bd81614381565b9050919050565b7f43616e6e6f74207472616e736665722073686172657320746f20796f7572736560008201527f6c66000000000000000000000000000000000000000000000000000000000000602082015250565b600061442060228361367b565b915061442b826143c4565b604082019050919050565b6000602082019050818103600083015261444f81614413565b9050919050565b7f416d6f756e74206d7573742062652067726561746572207468616e2030000000600082015250565b600061448c601d8361367b565b915061449782614456565b602082019050919050565b600060208201905081810360008301526144bb8161447f565b9050919050565b7f496e73756666696369656e742073686172657300000000000000000000000000600082015250565b60006144f860138361367b565b9150614503826144c2565b602082019050919050565b60006020820190508181036000830152614527816144eb565b9050919050565b7f46756e64696e6720676f616c206d75737420626520677265617465722074686160008201527f6e20300000000000000000000000000000000000000000000000000000000000602082015250565b600061458a60238361367b565b91506145958261452e565b604082019050919050565b600060208201905081810360008301526145b98161457d565b9050919050565b7f496e76616c6964206475726174696f6e00000000000000000000000000000000600082015250565b60006145f660108361367b565b9150614601826145c0565b602082019050919050565b60006020820190508181036000830152614625816145e9565b9050919050565b7f496e76616c6964207469746c65206c656e677468000000000000000000000000600082015250565b600061466260148361367b565b915061466d8261462c565b602082019050919050565b6000602082019050818103600083015261469181614655565b9050919050565b7f496e76616c6964206465736372697074696f6e206c656e677468000000000000600082015250565b60006146ce601a8361367b565b91506146d982614698565b602082019050919050565b600060208201905081810360008301526146fd816146c1565b9050919050565b7f436f70797269676874205552492063616e6e6f7420626520656d707479000000600082015250565b600061473a601d8361367b565b915061474582614704565b602082019050919050565b600060208201905081810360008301526147698161472d565b9050919050565b7f546f6b656e205552492063616e6e6f7420626520656d70747900000000000000600082015250565b60006147a660198361367b565b91506147b182614770565b602082019050919050565b600060208201905081810360008301526147d581614799565b9050919050565b600082905092915050565b60008190508160005260206000209050919050565b60006020601f8301049050919050565b600082821b905092915050565b6000600883026148497fffffffffffffffffffffffffffffffffffffffffffffffffffffffffffffffff8261480c565b614853868361480c565b95508019841693508086168417925050509392505050565b6000819050919050565b600061489061488b61488684613722565b61486b565b613722565b9050919050565b6000819050919050565b6148aa83614875565b6148be6148b682614897565b848454614819565b825550505050565b600090565b6148d36148c6565b6148de8184846148a1565b505050565b5b81811015614902576148f76000826148cb565b6001810190506148e4565b5050565b601f82111561494757614918816147e7565b614921846147fc565b81016020851015614930578190505b61494461493c856147fc565b8301826148e3565b50505b505050565b600082821c905092915050565b600061496a6000198460080261494c565b1980831691505092915050565b60006149838383614959565b9150826002028217905092915050565b61499d83836147dc565b67ffffffffffffffff8111156149b6576149b5613df5565b5b6149c08254614052565b6149cb828285614906565b6000601f8311600181146149fa57600084156149e8578287013590505b6149f28582614977565b865550614a5a565b601f198416614a08866147e7565b60005b82811015614a3057848901358255600182019150602085019450602081019050614a0b565b86831015614a4d5784890135614a49601f891682614959565b8355505b6001600288020188555050505b50505050505050565b6000614a6f838561367b565b9350614a7c838584613ea1565b614a85836136b6565b840190509392505050565b60006040820190508181036000830152614aab818688614a63565b90508181036020830152614ac0818486614a63565b905095945050505050565b60006020820190508181036000830152614ae6818486614a63565b90509392505050565b7f50726f6a656374206e6f7420636f6d706c657465640000000000000000000000600082015250565b6000614b2560158361367b565b9150614b3082614aef565b602082019050919050565b60006020820190508181036000830152614b5481614b18565b9050919050565b7f526566756e6420616c726561647920636c61696d656400000000000000000000600082015250565b6000614b9160168361367b565b9150614b9c82614b5b565b602082019050919050565b60006020820190508181036000830152614bc081614b84565b9050919050565b7f4e6f2073686172657320746f20636c61696d20726566756e6420666f72000000600082015250565b6000614bfd601d8361367b565b9150614c0882614bc7565b602082019050919050565b60006020820190508181036000830152614c2c81614bf0565b9050919050565b6000614c4e614c49614c448461384d565b61486b565b613722565b9050919050565b614c5e81614c33565b82525050565b6000604082019050614c7960008301856137b7565b614c866020830184614c55565b9392505050565b600081519050614c9c81613d84565b92915050565b600060208284031215614cb857614cb76135ab565b5b6000614cc684828501614c8d565b91505092915050565b7f526566756e64207472616e73666572206661696c656400000000000000000000600082015250565b6000614d0560168361367b565b9150614d1082614ccf565b602082019050919050565b60006020820190508181036000830152614d3481614cf8565b9050919050565b6000602082019050614d506000830184613865565b92915050565b6000614d618261384d565b9150614d6c8361384d565b925082820190506bffffffffffffffffffffffff811115614d9057614d8f6140b2565b5b92915050565b7f46756e64696e6720676f616c2065786365656465640000000000000000000000600082015250565b6000614dcc60158361367b565b9150614dd782614d96565b602082019050919050565b60006020820190508181036000830152614dfb81614dbf565b9050919050565b7f50726f6a656374206e6f7420696e2066756e64696e6720706861736500000000600082015250565b6000614e38601c8361367b565b9150614e4382614e02565b602082019050919050565b60006020820190508181036000830152614e6781614e2b565b9050919050565b7f53686172652063616c63756c6174696f6e206f766572666c6f77000000000000600082015250565b6000614ea4601a8361367b565b9150614eaf82614e6e565b602082019050919050565b60006020820190508181036000830152614ed381614e97565b9050919050565b7f50726f64756365722068617320696e73756666696369656e7420736861726573600082015250565b6000614f1060208361367b565b9150614f1b82614eda565b602082019050919050565b60006020820190508181036000830152614f3f81614f03565b9050919050565b6000606082019050614f5b60008301866137b7565b614f6860208301856137b7565b614f756040830184614c55565b949350505050565b7f5472616e73666572206661696c65640000000000000000000000000000000000600082015250565b6000614fb3600f8361367b565b9150614fbe82614f7d565b602082019050919050565b60006020820190508181036000830152614fe281614fa6565b9050919050565b6000604082019050614ffe6000830185613865565b61500b60208301846138a1565b9392505050565b600081519050919050565b600082825260208201905092915050565b600061503982615012565b615043818561501d565b935061505381856020860161368c565b61505c816136b6565b840191505092915050565b600060808201905061507c60008301876137b7565b61508960208301866137b7565b6150966040830185613a3d565b81810360608301526150a8818461502e565b905095945050505050565b6000815190506150c2816135e1565b92915050565b6000602082840312156150de576150dd6135ab565b5b60006150ec848285016150b3565b91505092915050565b600060408201905061510a60008301856137b7565b6151176020830184613a3d565b939250505056fea264697066735822122076947844d0aa3ea5b1c550616afce6513d89ee44bb94bb9f94f3846e04efa2dd64736f6c634300081c0033",
  "linkReferences": {},
  "deployedLinkReferences": {}
}